:02000002D0002C
:1040000000400D0044340E00000006000D000501C4
:084010000401FD08000000009E
:0440180084210E00F1
:1040200009480A49884208B505D0094A824202D0A7
:10403000121A0BF0A7FF0748074A0021121A0BF0CB
:10404000C9FF014808BD00BF0CE2032034320E0056
:10405000F0E30320F0E30320F0E7032070B5074E00
:10406000074C0BF0F7F8A41BA4080025A54200D1CB
:1040700070BD56F8043B98470135F7E7EC310E0068
:1040800024320E0000F072BF08B500F081F9BDE8DF
:1040900008400BF097B808F095B908F093B908F00C
:1040A00099B908F097B9000008B5034A00210C201F
:1040B00008F028F8FEE700BF45BD0D000078B0FA13
:1040C00080F0400970470123037070477047006A11
:1040D0000368DB68184700680A68D0E9000100231C
:1040E00082428B41ACBF012000207047022A06D0DB
:1040F000032A02D0012A00D10160002070470B681A
:104100000360FAE7022A06D0032A02D0012A00D16E
:104110000160002070470B680360FAE7012A08BFBE
:10412000016000207047012A08BF0160002070472D
:10413000012A08BF016000207047012A08BF016002
:104140000020704708B50021006801F0CDFA012079
:1041500008BD08B54FF0FF31006801F0C5FA012035
:1041600008BD08B54FF4FA6008F0A4F9012008BDB5
:1041700038B50B6801330D4609D103F025FD002445
:10418000012380F8B2402B6084F0010038BD036841
:10419000D3E9000150EA010309D0126800238242EA
:1041A0008B4104DB03F010FD012380F8B23003F0F3
:1041B0000BFD90F8B340002CE6D003F005FD012381
:1041C00080F8B23003F000FD03F05CFDDCE708B5D9
:1041D00003F0FAFC012380F8B230184608BD022A29
:1041E00038B5044607D0032A10D0012A01D10B6844
:1041F0000360002038BD08200D68FFF74CFF18B1A0
:10420000D5E90023C0E900232060F2E70068002818
:10421000EFD008210BF026F9EBE7022A38B5044667
:1042200007D0032A10D0012A01D10B6803600020B7
:1042300038BD08200D68FFF72EFF18B1D5E900231F
:10424000C0E900232060F2E700680028EFD00821D1
:104250000BF008F9EBE700000A4B10B504460360C9
:1042600009F082FB214609F044FD0AF063FF0AF0E1
:1042700055FF2046044B40F8043B09F027FC20463C
:1042800010BD00BF88220E0070220E0010B504463B
:10429000FFF7E2FF204624210BF0E4F8204610BD92
:1042A00038B50C4601220E49204609F093F905461F
:1042B0000AF03FFE0146284609F0CEF809490122DE
:1042C000204609F087F9044601F09CF80BF0A2FAA9
:1042D00041EC100B20460121BDE8384009F0E0B860
:1042E00054290E00D32A0E0010B58368044613B17A
:1042F000032201469847204610BD0EB410B58DB07C
:104300000FAA016852F8044B039200232020CDE944
:104310000403CDE900421E2004AA07F013FF0DB0EC
:10432000BDE8104003B0704710B50446006908B1FD
:10433000FFF7B5FE606808B1FFF7B1FE204610BD7B
:1043400010B57F2303700023C0E90133C0E90333B4
:10435000C0E90533044605491C3002F089F90449D7
:1043600004F1240002F084F9204610BD98210E00CB
:10437000A1210E0010B50446243001F0C7FF04F15E
:104380001C0001F0C3FF2046FFF7CEFF204610BD02
:1043900008B505F0BDF907F038FC044801F026FD2A
:1043A00003F012FCBDE8084003F000BB00E403206A
:1043B00070B5D0E900531426044606FB0356AE42FE
:1043C00004D028460AF050FA1435F8E7206808F0BF
:1043D00001F8204670BD70B5D1E90035ED1A002313
:1043E000C0E900338360AB1004460E4617D0B3F12A
:1043F000005F01D30BF03CF82846FFF74CFE054464
:10440000A560D6E90053C4E900002A46014693425C
:1044100007D009B116680E6004310432F7E7184678
:10442000EDE75B1B03446360204670BD38B5002395
:1044300083608B6804460D462BB102229847EB68D7
:10444000E360AB68A360204638BD000010B58EB0B5
:104450000AF052FD00283AD005F05AF91D4B059399
:1044600004461D4B049302A906A8FFF7DFFF06A927
:104470000AA8FFF7DBFF0AA904F5EA6005F0B2F924
:104480000AA8FFF731FF06A8FFF72EFF02A8FFF7E3
:104490002BFF124B18680BF0DFF9114ACDE9000130
:1044A00010210AA807F0B6FF03F08EFB0D4B002188
:1044B0001A7803688DF804108DF800201C680A49EA
:1044C0003C230AAAA04709480AA9FFF716FF0020C3
:1044D0000EB010BDA1420D0027410D0020E40320C5
:1044E000AA210E00FCE30320B3210E0078E503208F
:1044F00038B5002383608B6804460D462BB1022239
:104500009847EB68E360AB68A360204638BD38B5D8
:10451000002383608B6804460D462BB10222984726
:10452000EB68E360AB68A360204638BD38B5002374
:1045300083608B6804460D462BB102229847EB68D6
:10454000E360AB68A360204638BD38B500238360C4
:104550008B6804460D462BB102229847EB68E36056
:10456000AB68A360204638BD38B5002383608B68F4
:1045700004460D462BB102229847EB68E360AB6816
:10458000A360204638BD38B5002383608B6804469D
:104590000D462BB102229847EB68E360AB68A3603D
:1045A000204638BD2DE9F843B1F10008074635DD56
:1045B0004FF0140909FB08F007F004FF0546A8B303
:1045C000D7E90046844209FB064615D2864214D933
:1045D000143EA4F11409341B0444B1451FD02CB17E
:1045E000314620460AF0BCF9337C237430460AF089
:1045F0003BF9143E143CF0E711D0A946A6420ED078
:10460000214648460AF0ACF9237C89F81030204650
:104610000AF02AF9143409F11409EFE70025386883
:1046200007F0D8FE3D60C7F808800120BDE8F88398
:104630002DE9F0410023C0E9003383600D4649684D
:104640009942044617DDFFF7ADFFA0B1D5E900633D
:104650004FF01408276808FB0368B04509D02FB154
:10466000314638460AF096F9337C3B7414361437D9
:10467000F3E76B6863602046BDE8F08113B50B4635
:104680000246D0E900016C4684E8030093E8030089
:1046900082E8030094E8030083E8030002B010BD41
:1046A0002DE9F843074688461646154604464FF05E
:1046B0000009444514D06DB1C5F80890294620463C
:1046C000FFF7DCFFA368AA68A260AB60E368EA6852
:1046D000E260EB602046FFF707FE10341035E8E794
:1046E000E01B3044BDE8F8832DE9F84307468846CF
:1046F0001646154604464FF00009444514D06DB1E6
:10470000C5F8089029462046FFF7B8FFA368AA68B5
:10471000A260AB60E368EA68E260EB602046FFF706
:10472000E3FD10341035E8E7E01B3044BDE8F883C2
:104730002DE9F843074688461646154604464FF0CD
:104740000009444514D06DB1C5F8089029462046AB
:10475000FFF794FFA368AA68A260AB60E368EA6809
:10476000E260EB602046FFF7BFFD10341035E8E74C
:10477000E01B3044BDE8F8832DE9F843074688463E
:104780001646154604464FF00009444514D06DB155
:10479000C5F8089029462046FFF770FFA368AA686D
:1047A000A260AB60E368EA68E260EB602046FFF776
:1047B0009BFD10341035E8E7E01B3044BDE8F8837A
:1047C0002DE9F843074688461646154604464FF03D
:1047D0000009444514D06DB1C5F80890294620461B
:1047E000FFF74CFFA368AA68A260AB60E368EA68C1
:1047F000E260EB602046FFF777FD10341035E8E704
:10480000E01B3044BDE8F8832DE9F84307468846AD
:104810001646154604464FF00009444514D06DB1C4
:10482000C5F8089029462046FFF728FFA368AA6824
:10483000A260AB60E368EA68E260EB602046FFF7E5
:1048400053FD10341035E8E7E01B3044BDE8F88331
:104850002DE9F347D0E9007988466FF07843114697
:10486000A9EB0702B3EB221F06464FEA221402D13E
:104870001A480AF000FE012C224638BF0122A41873
:10488000A8EB070A28D24CB19C4228BF1C46200145
:104890000191FFF700FC0199054600E0254615EB64
:1048A0000A0001D0FFF724FE41462A463846FFF7AA
:1048B0003FFF494600F110024046FFF739FF8046AE
:1048C00017B13846FFF7EBFB05EB0414C6E90058B7
:1048D000B46002B0BDE8F0871C46D8E7B8210E00EE
:1048E00038B5D0E90135AB4204460A4607D013B1CA
:1048F0001846FFF7FDFD63681033636038BD194645
:10490000FFF7A6FFFAE700002DE9F347D0E90079A9
:1049100088466FF078431146A9EB0702B3EB221FDC
:1049200006464FEA221402D11A480AF0A4FD012CCF
:10493000224638BF0122A418A8EB070A28D24CB19E
:104940009C4228BF1C4620010191FFF7A4FB01995E
:10495000054600E0254615EB0A0001D0FFF7D7FD1C
:1049600041462A463846FFF74FFF494600F11002FC
:104970004046FFF749FF804617B13846FFF78FFBE7
:1049800005EB0414C6E90058B46002B0BDE8F08736
:104990001C46D8E7B8210E002DE9F347D0E900798D
:1049A00088466FF078431146A9EB0702B3EB221F4C
:1049B00006464FEA221402D11A480AF05CFD012C87
:1049C000224638BF0122A418A8EB070A28D24CB10E
:1049D0009C4228BF1C4620010191FFF75CFB019916
:1049E000054600E0254615EB0A0001D0FFF79EFDC5
:1049F00041462A463846FFF777FE494600F1100245
:104A00004046FFF771FE804617B13846FFF747FB77
:104A100005EB0414C6E90058B46002B0BDE8F087A5
:104A20001C46D8E7B8210E002DE9F347D0E90079FC
:104A300088466FF078431146A9EB0702B3EB221FBB
:104A400006464FEA221402D11A480AF014FD012C3E
:104A5000224638BF0122A418A8EB070A28D24CB17D
:104A60009C4228BF1C4620010191FFF714FB0199CD
:104A7000054600E0254615EB0A0001D0FFF765FD6D
:104A800041462A463846FFF79BFE494600F1100290
:104A90004046FFF795FE804617B13846FFF7FFFA0C
:104AA00005EB0414C6E90058B46002B0BDE8F08715
:104AB0001C46D8E7B8210E002DE9F347D0E900796C
:104AC00088466FF078431146A9EB0702B3EB221F2B
:104AD00006464FEA221402D11A480AF0CCFC012CF7
:104AE000224638BF0122A418A8EB070A28D24CB1ED
:104AF0009C4228BF1C4620010191FFF7CCFA019986
:104B0000054600E0254615EB0A0001D0FFF72CFD15
:104B100041462A463846FFF72FFE494600F110026B
:104B20004046FFF729FE804617B13846FFF7B7FA2F
:104B300005EB0414C6E90058B46002B0BDE8F08784
:104B40001C46D8E7B8210E0030B589B01E4B009145
:104B500004460D46039369461C4B029304A8FFF7D5
:104B6000C7FC04A904F5CA60FFF7BAFE04A8FFF762
:104B7000BBFB6846FFF7B8FB154B03936946154B23
:104B8000029304A80095FFF7EFFCD4F8FC06D4F8D4
:104B90000037984211D010B104A9FFF7E5FCD4F812
:104BA000FC361033C4F8FC3604A8FFF79DFB6846BA
:104BB000FFF79AFB204609B030BD014604AA04F570
:104BC000DF60FFF779FFEFE753410D00ED400D0087
:104BD00045410D0005410D002DE9F347D0E900796D
:104BE00088466FF078431146A9EB0702B3EB221F0A
:104BF00006464FEA221402D11A480AF03CFC012C66
:104C0000224638BF0122A418A8EB070A28D24CB1CB
:104C10009C4228BF1C4620010191FFF73CFA0199F4
:104C2000054600E0254615EB0A0001D0FFF7ABFC76
:104C300041462A463846FFF733FD494600F1100247
:104C40004046FFF72DFD804617B13846FFF727FA9B
:104C500005EB0414C6E90058B46002B0BDE8F08763
:104C60001C46D8E7B8210E002DE9F84FD0E9008A9C
:104C700093466FF07043AAEB0802B3EBE20F0746CE
:104C800089464FEAE20402D125480AF0F4FB012CE0
:104C9000224638BF0122A418A1EB08063DD23CB140
:104CA0009C4228BF1C46E000FFF7F5F9054600E0EE
:104CB0002546AB191CBFDBE90001C3E90001002355
:104CC00008EB030291450AD015EB030C18BFD2E99B
:104CD000000103F1080318BFCCE90001F0E7083632
:104CE0002E4432464B46534502F1080205D093E864
:104CF0000300083302E90300F5E7A3EB09031E44B0
:104D0000B8F1000F02D04046FFF7C9F905EBC40423
:104D1000C7E90056BC60BDE8F88F1C46C3E700BF7A
:104D2000B8210E0010B50A46D0E901418C42034675
:104D300008D01CB192E8030084E803005A680832E6
:104D40005A6010BD2146FFF78FFFFAE770B58AB0B1
:104D500004461D462F4B059302A92F4B049306A82A
:104D60001646FFF7F2FBD4F8F006D4F8F436984272
:104D700041D010B106A9FFF7E8FBD4F8F0361033A4
:104D8000C4F8F03606A8FFF7AFFA02A8FFF7ACFAAE
:104D9000002308200493FFF77EF908B1C0E90065FD
:104DA0001E4B0290059302A91D4B049306A8FFF722
:104DB000BDFBD4F8CC06D4F8D036984222D010B13E
:104DC00006A9FFF7B3FBD4F8CC361033C4F8CC36C1
:104DD0004FF0FF330022694604F2D460CDE900327F
:104DE000FFF7A0FF06A8FFF77FFA02A8FFF77CFAFB
:104DF00020460AB070BD014606AA04F2EC60FFF737
:104E000013FEBFE7014606AA04F5D960FFF7C4FD0B
:104E1000DEE700BFCF410D001D410D0071410D00C7
:104E20001B420D0030B5474B474997B001241C7019
:104E30000CA809F064FD45498DF8404011A809F01F
:104E40005EFD002302216846CDE900338DF8544011
:104E50000293FFF7A7FB98B1009C34B10CA9204640
:104E600009F098FD9DF84030237411A904F1140055
:104E700009F090FD9DF8543084F82430022301930A
:104E80000AF058F96946054603A8314CFFF7D0FBF4
:104E900003A906A8FFF7CCFB2E4B236006A909A89F
:104EA000FFF7C6FB09AA1E21201D09F07CF809A8FE
:104EB000FFF77EFA06A8FFF77BFA274B23602562EF
:104EC00003A8FFF775FA254B23600AF033F94FF476
:104ED00016510AF01FF908F047FD214608F0F5FFCA
:104EE0006846FFF765FA11A809F0BEFC0CA809F0A6
:104EF000BBFC0021012007F06FF9194B194A9A6099
:104F000000241C609C809C71022007F04DF9012157
:104F1000042006F0F7FE0AF081FA692201461248E1
:104F200000F0F2FA0AF0C8F9234622460D210AF0F1
:104F3000CBF90AF0C1F92346224621460AF0CCF902
:104F400017B030BDFCE30320D2210E00DB210E00A0
:104F500040E4032070220E00D42D0E0088220E00A3
:104F6000F0E303200000FFFF00E4032030B500233E
:104F7000ADB099499948042207F074F9984A9949C3
:104F8000994807F05EFB994A9949974807F059FB01
:104F9000984A9949944807F054FB9848012100F039
:104FA00045FE0021954800F023FC7C21934800F049
:104FB0009BFB02F009FE03F015F804F0A9FB904BEF
:104FC000C0F8A0370446002308200D93FFF763F8CC
:104FD00018B18C4A0023C0E900238B4B0B900E9331
:104FE0000BA98A4B0D9316A8FFF7CDFAD4F8080742
:104FF000D4F80C37984200F0E08010B116A9FFF702
:10500000C2FAD4F808371033C4F8083716A8FFF7E7
:105010006BF90BA8FFF768F901F0E2FD7C49054642
:1050200016A801F001FD17A905F1080009F0A3FC7D
:105030001C9BEB611DA905F1200009F09CFC229B43
:105040006B63249BEB63269B6B64289BEB642A9B1E
:105050006B659DF8AC3085F8583016A801F06EF9F4
:105060006C4904F2547009F0A8FC6B4904F26C70AE
:1050700009F0A3FC694B079304A9694B069316A892
:10508000FFF745FAD4F8B406D4F8B836984200F0E1
:105090009B8010B116A9FFF73AFAD4F8B436103352
:1050A000C4F8B43600254FF0FF330BA904F2BC60FE
:1050B000CDE90B35FFF736FE16A8FFF715F9594B6A
:1050C0000E930BA9584B0D9316A8FFF711FA16A9CA
:1050D00004F5CA60FFF704FC16A8FFF705F9474975
:1050E0002046FFF731FD00220023FFF72FFE0BA81B
:1050F000FFF7FAF804A8FFF7F7F804F009FB4B49AB
:1051000000F5C76002F0C8FB49490446684601F053
:10511000AFFA484902A801F0ABFA3E2305A90CA852
:105120008DF810308DF82C30CDE90555CDE90755B7
:10513000CDE90955FFF74FF908A90FA8FFF74BF97B
:10514000019A3D4B1293CDE913230F21039B159335
:105150000BAA204602F08DFA044616A8FFF7F0F8D5
:1051600016AA0221204602F09EFA16A8FFF702F9BD
:105170000BA8FFF7FFF804A8FFF7D6F802A801F084
:10518000C5F8684601F0C2F804F0C2FA2B4900F5F0
:10519000C76002F081FB044616A8FFF7D1F816AAF3
:1051A0000221204602F065FA16A8FFF7E3F804F0A2
:1051B000AFFA05F063FA2DB030BD014616AA04F22D
:1051C0000470FFF709FD21E7014616AA04F5D66031
:1051D000FFF79AFB66E700BF74E40320E7210E00A7
:1051E000ED210E0045530D0017C60D00F6210E00EF
:1051F000B5520D0004220E00E5520D0000E403201C
:10520000E093040020120A00D7400D00DF410D009A
:1052100013220E003C220E004C220E004D440D00C5
:1052200031410D0063410D003B410D004F220E0046
:1052300054220E005D220E0068250E00EF250E00A0
:1052400038B5046805467CB16368013B63605BB9AF
:10525000236820469B689847A368013BA3601BB95D
:1052600023682046DB689847284638BD00B50D4BBB
:105270000D4ADB7AC5B04FF4807104A807F0CAF874
:105280000A4B0B491B788DF8003004AA3C2302A876
:1052900007F0E4FA03A8FFF7D3FF012045B05DF85B
:1052A00004FB00BF64E4032098220E0084E4032082
:1052B000FF210E0007B50A22006801A90BF030FE9D
:1052C000172809D8064BD87206F0ECFF30B1FFF76B
:1052D000CDFF03B05DF804FB0020FAE70120F8E7FA
:1052E00064E4032000B5C7B000680A2203A90BF0EC
:1052F00017FE18281AD80F4B0F4A18734FF48071F5
:10530000034606A807F086F806F0CCFF60B10B4B09
:105310000B491B788DF8003004A83C2306AA07F03F
:105320009DFA05A8FFF78CFF012000E0002047B0A0
:105330005DF804FB64E40320AC220E0084E4032047
:10534000FF210E0030B524498BB0044609F0B2FBB2
:1053500038B32149204609F0ADFB054648BB1F493B
:10536000204609F0A7FB002833D01D4B1D499D7234
:10537000182204A80AF0D3FE1B4804A9FEF7BDFFBB
:1053800006F090FF28BB194B19491B788DF80030A7
:1053900002A83C2304AA07F061FA03A8FFF750FF14
:1053A00017E00E49204609F085FB0028D1D10BB04B
:1053B00030BD0B4B0F491822012404A89C720AF03F
:1053C000AEFE094804A9FEF798FF06F06BFF00281F
:1053D000D9D10120EBE700BF5E2D0E00F62C0E00A8
:1053E00064E40320C3220E0078E5032084E4032054
:1053F000D5220E00CB220E00014B01221A707047FD
:1054000084E4032010B51D4B2DED028B1C8882B067
:105410000121204609F0A6FF022007F04BF8184BA7
:10542000188809F0CBFF08EE100A0021204609F089
:1054300099FFDFED147A9FED147A144BB8EEC88A09
:10544000F2EE046A28EE278AC8EE077A9FED107AFA
:1054500077EEC77A87EEA67A17EE100A83ED007A08
:105460000AF0FAF90B4ACDE9000110210A4806F0CA
:10547000D1FF012002B0BDEC028B10BD202C0E002C
:10548000222C0E0000404E4500F07F4520E4032012
:105490000000FA43DA220E0074E40320704710B5CE
:1054A0002021044609F0DEFF204610BD0EB410B5E1
:1054B0008DB00FAA016852F8044B039200232020FC
:1054C000CDE90403CDE90042012004AA06F03AFE2A
:1054D0000DB0BDE8104003B070470EB410B58DB0EC
:1054E0000FAA016852F8044B039200232020CDE953
:1054F0000403CDE90042322004AA06F023FE0DB0D9
:10550000BDE8104003B0704710B50272FF2242811F
:105510000022C0E9032242610276C261024A034CC2
:105520001060C0E9004110BD8CE40320E4240E00AB
:105530002DE9F8439DF820800446894616461F460B
:10554000B8F1000F02D0406807F0B1FB217A606823
:1055500007F0A5FB6068036849469B689847606848
:10556000002107F0A0FB054600BB0123217A6068FB
:105570003A4607F082FB8742034609D13744BE42D0
:105580001CD0606803685B69984706F8010BF6E772
:105590000B490C484A46FFF7A0FFB8F1000F02D0B4
:1055A000606807F08DFB2846BDE8F883034606498E
:1055B00004484A46FFF791FF0025EEE70125ECE796
:1055C000E2220E0088E4032007230E0007B50093B3
:1055D0000123FFF7ADFF03B05DF804FB73B543890A
:1055E000FF2B044610D0194E194D06F0B3FBB0F551
:1055F0007A7F09D2608909F0CEFE012804D03146B5
:105600002846FEF77AFEF0E701230DF10702282174
:105610002046FFF7DBFF30B90D480E49FEF76DFE5F
:10562000002002B070BD9DF80730182BF4D1012383
:105630000DF1070229212046FFF7C8FF0028EBD013
:105640009DF80730052BE7D1EBE700BF2B230E00B9
:1056500088E4032040230E002DE9F0419DF81880D6
:1056600004460F4615461E46B8F1000F02D04068AA
:1056700007F01DFB217A606807F011FB6068036882
:1056800039469B6898472E44B542606805D0036848
:1056900015F8011B9B689847F6E7012107F003FB0B
:1056A000034670B1084909483A46FFF716FF00253E
:1056B000B8F1000F02D0606807F002FB2846BDE891
:1056C000F0810125F4E700BF4D230E0088E403209C
:1056D0001FB58DF80F2000930DF10F020123FFF786
:1056E000BBFF05B05DF804FBF8B50A460C4605465D
:1056F0001A491B48FEF701FE002CB8BFEC687CB9C4
:10570000012322461B212846FFF7E2FF15490246E6
:1057100006461348FFF7CAFEEC606C613046F8BDE0
:10572000032C19DDA7101F2FA8BF1F27BA0062F096
:105730007C020123D2B21B212846FFF7C9FF3A465B
:105740000346094906460648FFF7B0FE4FF4FA63E0
:105750005F43EC606F61E1E70127E7E772230E002A
:1057600088E403207C230E0098230E000B46074993
:105770000246086848B1002B08BFB2F5006F04D19B
:10578000C36813B10021FFF7AFBF70478CE403205B
:105790002DE9FF419DF82880054616461F46B8F1C1
:1057A000000F04D04068019107F081FA019901913E
:1057B00000230DF10F022846FFF708FF044660B1F1
:1057C0009DF80F3003EA06023A43934205D001994F
:1057D00000232846FFF77CFF0446B8F1000F02D0F3
:1057E000686807F06DFA204604B0BDE8F08100005B
:1057F00037B504460A463F480D463F49FFF756FE77
:10580000606807F054FA00231A460F212046FFF77C
:105810005FFF0023132210212046FFF759FF0023CA
:105820003C2211212046FFF753FF0023E0221221E2
:105830002046FFF74DFF0023262213212046FFF7C5
:1058400047FF00231A4617212046FFF741FF15F0B6
:10585000010348D000230093E3222323182120468C
:10586000FFF796FF00231A4619212046FFF730FF65
:1058700000231A461A212046FFF72AFF00231A4662
:105880001B212046FFF724FF15F0020F4FF0000305
:105890000CBF1A4688221C212046FFF719FF00235F
:1058A0001A4620212046FFF713FF0023F022212172
:1058B0002046FFF70DFF00231A4626212046FFF75A
:1058C00007FF0023802227212046FFF701FF002346
:1058D0001A4630212046FFF7FBFE606807F0F0F91A
:1058E000012003B030BD232218212046FFF7F0FE2F
:1058F000B8E700BF88E40320BC230E0013B51446AC
:105900000DF10702FFF762FE28B19DF807301C4237
:105910000CBF0120002002B010BD13B514460DF1DC
:105920000702FFF753FE28B19DF807301C4214BF51
:105930000120002002B010BD07B5D2430093D2B2BF
:105940000023FFF725FF03B05DF804FB37B5012303
:105950000DF107020F210446FFF738FE054638B95E
:105960001E491F48AD22FFF7B8FD284603B030BDE1
:105970009DF8073013F0200F4FF001030BD02022C9
:10598000E3610F212046FFF7D7FF164A1649144856
:10599000FEF7B3FCE9E7082217212046FFF7BDFF19
:1059A00018B10223114AE361F0E79DF807301A07A6
:1059B00009D50323E361082201230F212046FFF7C5
:1059C000BBFF0B4AE2E75B07CFD50422E26101236C
:1059D0000F212046FFF7B0FF064AD7E700240E004C
:1059E00088E40320D1230E001F240E00DA230E00CA
:1059F000EA230E00FA230E0007B500931346FF2298
:105A0000FFF7C6FE03B05DF804FB2DE9F3479DF8F0
:105A100028A005460C4691461F46BAF1000F02D059
:105A2000406807F044F907B3202F3E4628BF2026E0
:105A30007F2C26D83319802B01D9C4F1800601238D
:105A400004223F212846FFF777FF002364F07F01FF
:105A500000934A463346C9B22846FFF769FD80469F
:105A600028B13444BF1BB144DDE74FF00108BAF15F
:105A7000000F02D0686807F023F9404602B0BDE885
:105A8000F087012304223F212846FFF7B5FFDCE71A
:105A90002DE9F3479DF828A005460C4691461F4680
:105AA000BAF1000F02D0406807F001F907B31F2FC9
:105AB0003E4628BF1F267F2C26D83319802B01D9BC
:105AC000C4F18006012304223F212846FFF734FF5A
:105AD000002364F07F0100934A463346C9B228464A
:105AE000FFF7BAFD804628B13444BF1BB144DDE75F
:105AF0004FF00108BAF1000F02D0686807F0E0F833
:105B0000404602B0BDE8F087012304223F21284629
:105B1000FFF772FFDCE7000030B585B00D68D1E912
:105B2000043203954D6802958D680195C96800910E
:105B30000133044902F26C72044609F003F820466E
:105B400005B030BD30240E0003110A2200F00F0012
:105B500002FB0300704738B5044600781546FFF78E
:105B6000F3FF08606078FFF7EFFF4860A078FFF769
:105B7000EBFF8860E078FFF7E7FFC8602079FFF768
:105B8000E3FF013808612DB9651D2878FFF7DCFFB8
:105B9000886138BD6079FFF7D7FF6430A51D486183
:105BA000F3E7000070B5012388B00D461A461021B6
:105BB0000446FFF7A3FEF0B1082301262046009615
:105BC0000DEB03020021FFF7B3FC044698B1324607
:105BD00029460DF10900FFF7BEFF04A8FFF79CFF5F
:105BE0000848049A0849FEF788FB04A808F03CFE20
:105BF000204608B070BD2422002128460AF0EAF9A8
:105C00000024F5E788E403204E240E0030B58BB065
:105C10000D4601A9FFF7C6FF044620B101A806F012
:105C200041FCC5E9000120460BB030BD10B504466B
:105C300088B011B1406807F003F82046FFF7CEFCAA
:105C400070B32046FFF782FE01231A46102120463A
:105C5000FFF754FED8B109F04FF9C0B902A92046A8
:105C6000FFF7D4FFDDE9020109F04DF80F4B1049B1
:105C70001B68009304A8DDE9022309F0FBF80D4836
:105C8000049A0D49FEF739FB04A808F0EDFD0B4A14
:105C9000002300214FF4006006F096FA08B010BD12
:105CA00007490448FFF719FCF1E700BF14E203209D
:105CB000CCE5032088E403205C240E006D570D0022
:105CC00079240E000A2290FBF2F302FB130093FBEF
:105CD000F2F102FB113140EA0110C0B2704770B519
:105CE000054600680C461646FFF7ECFF2070686812
:105CF000FFF7E8FF6070A868FFF7E4FFA070E868AE
:105D0000FFF7E0FFE07028690130FFF7DBFF20714B
:105D10002EB9661DA869FFF7D5FF307070BD6A699E
:105D2000642392FBF3F003FB1020FFF7CBFFA61DCB
:105D30006071EFE7F0B587B0054602A816460C463D
:105D4000FFF7EAFE1E48029A1E49FEF7D6FA02A89D
:105D500008F08AFD16B1686806F0A9FF2046012206
:105D60000DF1090100278DF80870FFF7B8FF012336
:105D70001A4610212846FFF73FFE0446E8B10823E3
:105D800000970DEB030239462846FFF765FC0446F1
:105D900060B101231A4610212846FFF7CDFD16B148
:105DA000686806F08DFF204607B0F0BD4FF48D7295
:105DB00005490348FFF791FBF1E74FF48F72F7E7CE
:105DC00088E4032091240E009F240E0013B504469E
:105DD0006846CDE900230AF0C3F89DF8102001467B
:105DE0002046FFF7A7FF02B010BD0000F0B5057E0A
:105DF00089B0044675BB09F07FF858B30026002728
:105E000004A92846CDE9046706F064FA10B3012519
:105E1000257609F08EF800950246C3172046CDE995
:105E20000223FFF7D3FF02A92046CDE90267FFF75F
:105E3000EDFE124B12491B68009304A8DDE9022312
:105E400009F018F80F48049A0F49FEF756FA04A80B
:105E500008F00AFD636973B105F07CFF2369C01A7D
:105E60006369984207D305F075FF4FF0FF31206159
:105E70002046FFF739FC09B0F0BD00BF14E2032053
:105E8000CCE5032088E40320BA240E00014B024A2B
:105E90001A60704788E40320D0240E00022A06D03E
:105EA000032A02D0012A00D10160002070470B684C
:105EB0000360FAE710B5012303748368044643B115
:105EC000C0689847012363740020BDE8104005F0C6
:105ED00011BF00680028F5D083680BB909F0CEFA2D
:105EE000C368EEE738B50568044635B12846FEF7C5
:105EF000FBF91021284609F0B5FA20461421BDE827
:105F0000384009F0AFBA10B503680446ABB1586821
:105F100005F0A0FE88B923685A7C12B9586805F0CC
:105F2000A1FE2368586805F0A5FE206800232360C1
:105F300018B1BDE81040FFF7D5BF10BD054A02609B
:105F400000224260027380F8BD22C0F8C822C0F867
:105F5000D022704710250E0010B5074C236843B9B6
:105F60004FF43570FEF797F8034608B1FFF7E6FFE8
:105F70002360206810BD00BF90E4032038B50446BC
:105F8000406890B102232373FFF7BDFF656855B1E8
:105F90002846FFF7B8FF286808B1FFF7A3FF0421E0
:105FA000284609F05FFA0023636038BD10B5054B41
:105FB00003600446FFF7E2FF04F53070FEF794F942
:105FC000204610BD10250E0010B50446FFF7EEFF69
:105FD00020464FF4357109F045FA204610BDF0B562
:105FE000044689B000F10D0600F14E07237B1BB972
:105FF000012006F05FFAF9E7237B022B62D0A0684C
:1060000005F048FEA06805F04DFE94F8BD328DF80D
:1060100000303A463C23314606A806F01FFC069D98
:106020006B7833B9237B022B03D0012006F042FAB0
:10603000F5E7D4F8C8321BB3002006F0D5F820B13C
:106040006B7813B906F01EF9FAE72B78D4F8D02252
:106050000592591E4B424B418DF80B30D4F8C83293
:10606000CDE903670BB909F009FA05AB0093D4F841
:10607000CC5204AB03AA0DF10B0104F53070A84714
:10608000A06805F007FE237B022B15D0D4F8C83298
:106090000025C4F8D05233B104F53071032208460C
:1060A0009847C4E9B2550023A068237305F0FAFDB0
:1060B00007A8FFF7C5F899E7A06805F0F3FD07A862
:1060C000FFF7BEF809B0F0BD0068FFF788BF000019
:1060D0002DE9F74306468846142026491746994677
:1060E00009F0C2F9044630B10022C0E90022C0E93B
:1060F0000222027442743460002C31D01D491020F9
:1061000009F0B2F9054668B10023836001463846BC
:10611000FEF7B4FABB68AA68BA60AB60EA68FB68CD
:10612000EB60FA602768256037B13846FEF7DCF887
:106130001021384609F096F93068036883B10A9B4C
:106140004A46CDE9000341460B4B043005F07AFD89
:1061500030B933681B7C4BB9012005F0EBFDF8E743
:1061600030680023336008B1FFF7BCFE304603B04F
:10617000BDE8F083202F0E00B55E0D0030B54368FA
:1061800087B00446C3B9083005F07CFD0B4B05937E
:1061900004200B4B02940493FDF77DFF054638B1B4
:1061A0004FF4406300930749022302AAFFF790FFD0
:1061B000656002A8FEF798F807B030BDC9600D0011
:1061C0009D5E0D00F4240E002DE9F043044685B0D9
:1061D00080680C9F98460D46164605F05BFD636887
:1061E0001BB1237B03F0FF0933B1A06805F05AFD12
:1061F000002005B0BDE8F083A06805F053FD002D38
:106200003DD04122294604F10D0009F088FF84F8B1
:106210004D908EB340F26F22314604F14E0009F0EA
:106220007EFF84F8BC9200230293BB6804F53075AE
:106230003BB10222394668469847FB680393BB6826
:10624000029329466846FEF719FA029BD4F8C82241
:10625000C4F8C832039B02926846D4F8CC22C4F832
:10626000CC320392FEF740F80D9BC4F8D0320120E7
:1062700084F8BD822073BCE784F84E60D3E72846DB
:10628000B7E7000010B5054B0360037C04461BB95B
:10629000406808B106F09EF8204610BD20250E008B
:1062A00010B50446FFF7EEFF2046142109F0DAF896
:1062B000204610BD10B5074B0360037C04461BB994
:1062C000406908B106F086F82046FFF7DBFF20465C
:1062D00010BD00BF30250E0010B50446FFF7EAFFE1
:1062E00020462C2109F0BEF8204610BD10B5C0E9AB
:1062F00001120022C260012202744361024A029B21
:106300000260C36110BD00BF30250E0070477047AA
:1063100001207047012A08BF01600020704710B5B6
:106320000821044609F09EF8204610BD10B5102142
:10633000044609F097F8204610BD000010B5054B43
:10634000044640F81C3B08F08FFA201D08F08CFA38
:10635000204610BD88250E0010B50446FFF7EEFF5D
:106360002046582109F07EF8204610BD10B5044B98
:10637000044640F8043BFFF7E1FF204610BD00BF94
:1063800058250E0010B50446FFF7F0FF20466021A7
:1063900009F068F8204610BD20F00203012B03D05D
:1063A000431F5842584170471846704708B1FDF7DF
:1063B00076BE704708B548B1B0F1005F01D309F06F
:1063C00057F8BDE808408000FDF765BE08BD0B68C2
:1063D00003604B68436013B15A6801325A607047DA
:1063E00090F9042091F904309A4213DB10DC90F903
:1063F000052091F905309A420CDB09DC90F9062062
:1064000091F906309A4205DBCCBF0120002070478D
:10641000012070474FF0FF3070470000024A0260D1
:106420004A684260704700BF68250E0091F9042059
:10643000027191F90520427191F90620827191F95A
:106440000720C271704738B50C46054600F11C01A3
:106450002046FFF7C5FF002809DB05F1240120468F
:10646000FFF7BEFF0028D4BF0020012038BD4FF049
:10647000FF30FBE738B504460D460430043108F020
:106480007AFA05F1140104F11400FFF7CFFF05F1CA
:106490001C0104F11C0008F06EFA05F12C0104F156
:1064A0002C00FFF7C3FF95F9383084F8383095F9A0
:1064B000393084F8393095F93A3084F83A3095F922
:1064C0003B3084F83B3005F13C0104F13C00FFF720
:1064D000ADFF95F9483084F8483095F9493084F893
:1064E000493095F94A3084F84A3095F94B3084F8B0
:1064F0004B3005F14C0104F14C00FFF797FF95F884
:10650000543084F85430204638BD4A69036862F339
:10651000160303600B695A1C438862F3CA13438055
:10652000CA68C3F3072362F3C703C370704710B58B
:1065300004468CB02422002103A809F04BFD2368F7
:10654000C3F3160308936388C3F3C313013B079394
:10655000E37803A8DB08069305F0A4FFCDE900016A
:1065600003A9684605F08EFF09980CB010BD30B540
:1065700004468DB024220D4603A8002109F02AFD0F
:106580002368E178C3F3160308936388C3F3C31346
:10659000013B05EBD10503A80793069505F082FFA3
:1065A000CDE9000103A9684605F06CFF03A9204668
:1065B000FFF7ABFF0DB030BD0368C1F31602C3F3A4
:1065C0001603934213D310D84288C1F3C353C2F3C6
:1065D000C3129A420BD308D8C378DB08B3EBD16F50
:1065E00005D38CBF012000207047012070474FF079
:1065F000FF307047024A026000224260704700BFCD
:1066000068250E0030B5002387B0838083710D4666
:1066100005AB00931349044604AB03AA284605F0D2
:10662000F1FE032807D1039B2371049B6371059B33
:10663000A37107B030BD0C4904AB03AA284605F08E
:10664000E1FE022804D1039B2371049B6371F0E7F0
:10665000064903AA284605F0D5FE012804BF039B7E
:106660002371E6E738250E003B250E0079230E0046
:1066700010B5044B0360002304464360FFF7C2FFDC
:10668000204610BD68250E0038B500257F2304463E
:106690000370C0E90155C0E90355C0E905550A4931
:1066A0001C30FFF7E5FF094904F12400FFF7E0FF84
:1066B000C4E90B550649656304F1380008F01FF979
:1066C000A564204638BD00BF98210E00A1210E0010
:1066D0006F290E0090F9043090F9052090F906100A
:1066E000002BB8BF0848C2EB02124FEA8202BDBFBE
:1066F00000FB0320401840424FF46160A4BF00FB40
:1067000003235818704700BFF0F1FFFF90F90730DE
:1067100043B990F904308B6090F905304B6090F9E3
:1067200006300B60704790F9073030B5B3B990F977
:1067300004508C682C44D1E900328C6090F90540FB
:10674000002DB5BF121B12194A604A60B5BF90F9FF
:10675000062090F906209B1A9B180B6030BD38B5B7
:1067600044680546AB68A34207D02046FFF724FFE4
:1067700004340028F6D1012038BD0020FCE738B5EC
:10678000046905466B69A34207D02046FFF714FF52
:1067900004340028F6D1012038BD0020FCE773B591
:1067A00005460E46FFF7EBFF90B901A80191FFF7F0
:1067B000BEFE2B78314643FA00F42846FFF7CFFFA0
:1067C00004F00104002C08BF0446204602B070BD4E
:1067D0000024FAE72DE9F843002445688046264660
:1067E0002746D8F808309D421ED067F3160966F395
:1067F000DA5964F3DF69B9F1000F09D12F686E88A7
:10680000EC78C7F31607C6F3C316E4080435E8E7C7
:1068100067F3160166F3DA5164F3DF612846FFF788
:10682000CBFE0028EADCF1E7002067F3160066F3F0
:10683000DA5064F3DF60BDE8F8830000054A08B56C
:1068400002600022034642600830FFF7D3FE18467C
:1068500008BD00BF78250E00002343608381837349
:106860007047000030B5044687B00D4611B10B7873
:106870004D2B03D02046FFF7EFFF1BE005AB009345
:106880000F4904AB03AA284605F0BCFD0328F1D14B
:10689000039B2371049B6371059BA3712F212846E1
:1068A00009F0DDFB40B1411C04F10800FFF7AAFE2E
:1068B0000123E37107B030BDA081A073F8E700BFEA
:1068C00041250E00104B114910B5044640F8043B19
:1068D00008F015F804F11400FFF78CFE0B4904F1E1
:1068E0001C0008F00CF804F12C00FFF783FE04F103
:1068F0003400FFF7A3FF04F14400FFF79FFF0023DC
:1069000084F85430204610BD88250E006F290E00F3
:106910002DE9F74F0446084609F0CAFB0025064654
:10692000019004F134083F49019801AA0AF07AFA6B
:106930000146002862D0012D05F1010353D0022D3C
:1069400056D0002D46D1024692F80090B9F1400F82
:106950001546174602F10102F6D800222A7004F10A
:106960001C0008F02AF8012285F8009084F85420D1
:106970002A786AB397F800A00AF1FF323F2AB94695
:10698000BB4607F10107F5D9002304F12C0789F86C
:10699000003029463846FFF735FE89F800A0BAF1E5
:1069A000000F15D05D461BF801ABBAF1400FF9D8C6
:1069B00000222A704946201D07F0FFFF85F800A03D
:1069C00004F11400BAF1000F06D02946FFF71AFEB1
:1069D0000125A8E71D46A6E73946FFF727FD237ED8
:1069E000013B2376F4E74046FFF73CFF02259AE798
:1069F00004F14400FFF736FF032594E794F93B3098
:106A000043B194F94B202AB904F13400FFF724FF75
:106A100084F85420304605F0DDFC94F8540003B0AF
:106A2000BDE8F08F4B250E0038B5134B04460D46DC
:106A300040F8043B114907F062FF04F11400FFF72E
:106A4000D9FD0E4904F11C0007F059FF04F12C0098
:106A5000FFF7D0FD04F13400FFF7F0FE04F144002D
:106A6000FFF7ECFE002384F8543029462046FFF758
:106A70004FFF204638BD00BF88250E006F290E004D
:106A800008B50346FFF7B6FD8A681A714A685A715D
:106A90000A689A71184608BD13B5074B03600023B6
:106AA000044643606846FFF7EBFF69462046FFF760
:106AB000BDFC204602B010BD68250E0091F90730DC
:106AC00043B991F90430836091F90530436091F93D
:106AD00006300360704707B50023014601A8019303
:106AE000FFF713FD019803B05DF804FB194B70B577
:106AF00004460D4640F8043B043107F04BFF05F116
:106B0000140104F11400FFF789FC05F11C0104F1E4
:106B10001C0007F03FFF05F12C0104F12C00FFF7EA
:106B20007DFC0D4EAB6BA36305F13C01666304F184
:106B30003C00FFF773FCAB6CA364666405F14C0189
:106B400004F14C00FFF76AFC95F8543084F8543097
:106B5000204670BD88250E0078250E00F8B50C463D
:106B600051F8043B074640F8043BFFF7BFFFD4E968
:106B7000182304F16806C7E918230FCE07F168054A
:106B80000FC50FCE0FC533682B60D4E9242304F161
:106B90009806C7E924230FCE07F198050FC50FCE3D
:106BA0000FC533682B60D4E93023C834C7E93023DC
:106BB0000FCC07F1C8050FC50FCC0FC523682B609C
:106BC0003846F8BD10B50446383007F04DFE206950
:106BD000FFF7ECFB6068FFF7E9FB204610BD000003
:106BE00038B5094D2B6863B96020FDF754FA0446A7
:106BF00030B1064B40F8043BFFF764FE6423E365C5
:106C00002C60286838BD00BF94E4032058250E008E
:106C100005F048BC01390B2915D8DFE801F016084A
:106C2000160616061616061606161E207047830749
:106C30000DD1642290FBF2F302FB130000280CBF7D
:106C40001C201D207047002070471F2070471C200B
:106C50007047F8B50123CB6090F90430013B0B611C
:106C60000023C1E9003306460C4617468B602046D8
:106C7000FFF7CEFF96F90630A2699A4203D0E36887
:106C80000133E360F3E796F90550012D13D0E36873
:106C90006069013DC5EBC5051D44E56096F904102A
:106CA00000F26C70FFF7B6FF8542C4BF073DE56098
:106CB0002046FFF7ADFF214606F10800FFF726FD4D
:106CC0003846FFF730FD2046BDE8F84005F0EABB46
:106CD000F0B590F8583085B004462BB9FFF780FF27
:106CE000011D201DFFF7C6FB94F93F30002B69D032
:106CF000D4E9182304F1980739463E4602A8CDE9A5
:106D0000022305F0BFFB0FCE04F1C8050FC50FCE5F
:106D10000FC533682B6004F1300102A8FFF77EFB3A
:106D200002AA394604F13800FFF793FFC4E92401B1
:106D300004F1180102A8FFF771FB02AA04F1C801CF
:106D400004F14800FFF785FFD4E924670B4686422B
:106D5000024677EB0301C4E93023D4E9180124DAB1
:106D6000B04271EB070519DA002323602068FFF7B2
:106D700013FB04F16801D4E91867019120BB04F109
:106D80003000FFF7A7FC361A67EBE077019902A8FD
:106D9000CDE9026705F076FB05B0F0BD904271EBDE
:106DA0000303B4BF01230223DFE7904271EB030327
:106DB00001DA0323D9E7B04271EB0703B4BF042320
:106DC0000523D2E70623D0E704F11800D9E72DE91F
:106DD000704304460E460FCCDCB001AD0FC50FCC9E
:106DE0000FC523682B6001A805F05CFB044606F183
:106DF0002C000D46FFF76EFC96F93B3014EB0008B3
:106E000045EBE0791BB3062321A82093FFF75AFD39
:106E100031460AA8FFF76AFE0AA921A8FFF72AFB54
:106E200020A8CDE93889FFF753FF0AA8FFF786FAB3
:106E30002098FFF7B1FA38B106F11400FFF74AFCC9
:106E400014EB000845EBE07921A8FFF777FA4046FC
:106E500049465CB0BDE8708330B591F9073097B012
:106E60000446C3B900F168056846FFF7D7FA6946DA
:106E70002846FFF723FE211D6846FFF737FE6946C7
:106E80002846FFF7A4FFC4E918016846FFF756FA41
:106E90002046FFF71DFF17B030BD000030B5D0E928
:106EA00018320B4D5B194FF0000585B045EB02021F
:106EB000C0E9183204460191FFF70AFF019902A8C0
:106EC000FFF7ACFA02A92046FFF7C6FF05B030BDB8
:106ED000805101002DE9F0418AB0174606460D4663
:106EE0002422002101A81C4609F074F8062F29D895
:106EF00029463046FFF78EFE002C804624DDA6F2A0
:106F00006C76013D06960595012301A80493FFF7D1
:106F10007FFE079A049BBA4201D00133F5E70021B6
:106F20000122944206D101B10493049C20460AB088
:106F3000BDE8F0810733434504DC0132062A4FF0F7
:106F40000101EED10024F1E7F0D0013DCDE90405C7
:106F5000A6F26C76069601A8FFF75AFE079B0499E5
:106F6000BB4202D001390491F5E7002001226442BE
:106F7000944203DC0028D8D00491D6E707390029D1
:106F8000E0DD0132062A4FF00100F1D1DAE700001E
:106F90002DE9F046CDB0044610A80D46FFF7DEFD02
:106FA000002320460293FFF715FC58BB2AA8FFF7E1
:106FB00092FD0290FFF714FEC16D02A8FFF7D7FA09
:106FC000DFF80CA22AA8FFF786FD02990390064677
:106FD00003A8FFF7F1FA002800F3F28031462046BB
:106FE000FFF7DDFB0746002800F09480A36C013B0F
:106FF000042B00F28F80DFE813F0070007009600F3
:10700000B800D5000290DBE72AA907A8FFF738FDF2
:1070100007A92046FFF717FA00280DDA04F11C0132
:1070200007A8FFF7FBF907A910A8FFF715FFDDE98F
:107030002823C5E9182394E06CD1A36C012B25D03B
:10704000022B67D104F11C0104A8FFF7E7F904F152
:107050002409494604A8FFF7C3F900285ADC04A90B
:1070600007A8FFF7DBF907A910A8FFF7F5FED5E998
:107070001801DDE92823904271EB030341DB9DF801
:107080001430E26A13448DF81430E2E7E26A94F9AE
:10709000213093FBF2F63C21514302FB1636DDE929
:1070A0002823521843EBE17310A8CDE92823FFF7FA
:1070B0000FFEDDE9282307A904A8CDE9042305F084
:1070C000E1F92B9BE16A9B1B93FBF1F201FB12336D
:1070D000089A07A8D21A94F922300892079305F06B
:1070E000E1F9CDE9280110A8FFF7F2FD2AA904A8CB
:1070F000FFF7D2FC04F1240104A8FFF771F900287E
:1071000008DA2AA8FFF7E7FC01462046FFF747FB0D
:1071100000288CD1514607A8FFF7AAFA07A910A8A2
:10712000FFF7BCFE4EE72E992F98D4E90B320131C0
:1071300000F26C70FFF7CEFE2D9B9842EAD104F16D
:107140001C0107A8FFF76AF907A910A8FFF784FE3A
:10715000DDE92801D5E9182382428B41DADAC5E955
:1071600018012846FFF7B4FD2BE0E66A002E08DA86
:107170002E992F98013100F26C70FFF74BFD3044CF
:10718000461C2AA8FFF7A7FCB6EBD06FC2D12AA9EC
:1071900007A8FFF775FC07A92046FFF754F9002858
:1071A000B8DCCCE72AA907A8FFF76AFC04F11C01A8
:1071B00007A80191FFF714F900280199AADCC0E79C
:1071C000002711A8FFF7BAF838464DB0BDE8F086A1
:1071D00098210E0037B58D6804466846FFF7F7F82A
:1071E0006A462946204606F095F801A8FEF728F8D9
:1071F000204603B030BD37B5CD6804466846FFF77A
:10720000E6F86A462946204606F060F801A8FEF72F
:1072100017F8204603B030BD37B50D6904466846FF
:10722000FFF7D5F86A462946204605F09EFE01A8DC
:10723000FEF706F8204603B030BD38B50D4611F80C
:10724000043B044600F8043BFDF7C5F805F11001C6
:1072500004F11000FDF7BFF8204638BD38B50446EC
:107260000D46FFF7EAFF05F11C0104F11C00FFF7D2
:10727000D5F805F1240104F12400FFF7CFF8EB6AFB
:10728000E3622B6B23636B6B636305F1380104F1DD
:10729000380007F07FFBAB6CA364204638BD2DE9B6
:1072A000F043D0F82080D1B081460C461546002628
:1072B0000027D9F82430434529D0414601A8FFF7DB
:1072C000CDFFAB680BB908F0D9F8EB6801A92846E7
:1072D0009847B0B1214614A8FFF740FC14A901A8B3
:1072E000FFF756FEDDE92C2310B156EA070103D063
:1072F000B24273EB070101DA16461F4615A8FFF7E5
:107300001DF801A8FFF75EFC08F14C08D1E756EA2A
:10731000070308D02046C4E91867FFF7D9FC01200D
:1073200051B0BDE8F0830020FAE700001FB5084B1C
:1073300003936A46074B0293FFF7B1FF029B044693
:107340001BB16946032208469847204604B010BD89
:1073500011630D0015630D002DE9F0470668BCB000
:1073600007468A46002400257B689E421CD0337C59
:10737000C3B151466846FFF7F1FB69463046FFF757
:10738000D5FF40B154EA0503DDE9188905D0A045D1
:1073900079EB050301DBA046A94601A8FEF7CEFF65
:1073A00044464D463036DFE7204629463CB0BDE82E
:1073B000F0872DE9F0470668BCB007468A460024EE
:1073C00000257B689E421DD033699B0718D5514626
:1073D0006846FFF7C3FB69463046FFF7A7FF40B199
:1073E00054EA0503DDE9188905D0A04579EB0503CA
:1073F00001DBA046A94601A8FEF7A0FF44464D4682
:107400003036DEE7204629463CB0BDE8F087000074
:107410002DE9F04FDFF85CB00668BDB007468A463C
:10742000002400257B689E421FD05946304607F055
:1074300041FBC0B151466846FFF790FB69463046B4
:10744000FFF774FF40B154EA0503DDE9188905D060
:10745000A04579EB050301DBA046A94601A8FEF78C
:107460006DFF44464D463036DCE7204629463DB0A8
:10747000BDE8F08FEF250E0081422DE9F041044672
:107480000E4622D0D1E900580068A3681B1AA8EB69
:1074900005079B10B3EBA70F4FEAA70118D20846C8
:1074A000FEF788FF06460346A84505D00BB12A68BB
:1074B0001A6004330435F7E72068FEF777FF26608B
:1074C0003E44A66023681F4467602046BDE8F08103
:1074D0006268121AB1EBA20F06D8A845F2D03A465C
:1074E000294608F05DFDEDE712B1294608F058FD88
:1074F000D4E90032D11A33680B4471689942E1D063
:107500000AB11868106004330432F7E738B50D4645
:1075100011F8043B044600F8043BFFF7ADFF05F10A
:10752000100104F11000FFF7A7FF05F11C0104F1A1
:107530001C00FEF77BFF05F1240104F12400FEF797
:1075400075FF204638BD00002DE9F74FD0E90069EE
:107550003B4D3C4BA9EB0604A4106C439C428A466D
:1075600007461146A84602D1374807F084FF012C90
:10757000224638BF0122A418AAEB06055DD254B1F9
:107580009C4228BF1C464C2060430091FCF783FDC1
:107590000099834600E0A3461BEB050001D0FFF7EE
:1075A0005DFE5B4631468A450AD033B118460191EB
:1075B0000093FFF753FEDDE900314C314C33F2E725
:1075C000AD0808FB05FA2AF040454FF04C0A0AFBCB
:1075D00005FA06EB0A050AF14C0ADA445346294635
:1075E000494513D1A9EB0505AD0808FB05F525F0C4
:1075F00040454FF04C0808FB05A5B046C8450FD0E4
:107600004046FFF7DFFA08F14C08F7E7184601910A
:107610000093FFF723FE0199009B4C314C33DFE7C9
:1076200016B13046FCF73BFD4C2000FB04B4C7E923
:1076300000B5BC6003B0BDE8F08F1C46A3E700BFF7
:107640001BCA6B286B28AF01B8210E0038B5D0E9F2
:107650000135AB4204460A4607D013B11846FFF77E
:10766000FDFD63684C33636038BD1946FFF76CFF5E
:10767000FAE730B597B0044603A801920D46FFF72C
:1076800003F801230199159303A80E95FFF73EFF18
:1076900003A904F12000FFF7D9FF03A8FFF792FA2E
:1076A000204617B030BD30B597B0044603A801920C
:1076B0000D46FEF7E9FF02230199159303A80E95E5
:1076C000FFF724FF03A904F12000FFF7BFFF03A881
:1076D000FFF778FA204617B030BD00002DE9F047DB
:1076E000D1E900371B4DFF1ABC1000236C43C0E9E1
:1076F000003306468846836008D0174B9C4201D968
:1077000007F0B6FE3846FCF7C6FC04462744B760CF
:10771000D8E900A7C6E90044D046A14647450BD0AA
:10772000B9F1000F03D041464846FFF797FD09F134
:107730004C0908F14C08F1E7A7EB0A07BF087D43A5
:1077400025F040454C2000FB054474603046BDE800
:10775000F08700BF1BCA6B286B28AF012DE9F041F1
:1077600007468846164615460446444513D07DB163
:107770002146284607F00EF923692B61D4E9062338
:1077800004F12001C5E9062305F12000FFF7A6FF5B
:1077900030343035E9E7E01B04090448444324F061
:1077A0007044302000FB0460BDE8F081ABAAAA0A57
:1077B0002DE9F74FD0E90068A8EB06042311334CFC
:1077C0005C43334B9C4205460F46934602D13148F9
:1077D00007F051FE012C224638BF0122A418A1EB6C
:1077E000060A50D244B19C4228BF1C463020604358
:1077F000FCF751FC814600E0A14619EB0A0A11D0C2
:107800005946504607F0C6F8DBF81030CAF8103079
:10781000DBE906230BF12001CAE906230AF1200067
:10782000FFF75CFF39464A463046FFF797FF41466F
:1078300000F130023846FFF791FF3746834647454F
:1078400014D0D7E908A35345019306D05046FFF75B
:10785000B9F90AF14C0A019BF5E7386A08B1FCF75F
:107860001EFC384607F000F83037E8E716B130461E
:10787000FCF715FC302000FB0494C5E9009BAC60CC
:1078800003B0BDE8F08F1C46B0E700BFABAAAAAAC0
:10789000AAAAAA02B8210E00F0B505688DB0044668
:1078A0000E4663689D422F4609D02846314607F0B0
:1078B00001F930350028F4D038460DB0F0BD22492A
:1078C000684607F01CF8002000210023CDE90601DE
:1078D00031466846CDE9083304930A9307F06DF802
:1078E000D4E901539D4220D075B16946284607F07E
:1078F00051F8049B2B61DDE9062308A9C5E906239D
:1079000005F12000FFF7EAFE63683033636020462C
:107910003146FFF7C1FFDDE908450746A5420AD019
:107920002046FFF74FF94C34F8E76A4629462046CF
:10793000FFF73EFFEBE7089808B1FCF7B0FB68469D
:1079400006F092FFB8E700BF6F290E0003680A78BF
:1079500083F8B120012183F8B0107047022A06D0C5
:10796000032A02D0012A00D10160002070470B6871
:107970000360FAE7012A034602D101600020704744
:10798000022A04BFD1E90001C3E90001F6E710B4FF
:1079900042680346541001EB6200D20748BF0A59FF
:1079A0001B685DF8044B48BFD3581847D0F8C8305F
:1079B00001461BB1D0F8CC30C030184770470000EA
:1079C000F8B5124D0846002A18BF15460F461E4648
:1079D00008F08BFB402817D8284608F086FB40F2B9
:1079E0006E23984210D84330FCF757FB044648B149
:1079F000394600F8016B08F053FB294604F14200B8
:107A000008F04EFB2046F8BD0024FBE76F290E006E
:107A1000F0B59FB00A4600230E46011D08A800F0ED
:107A2000F9FD0898002109F09FFA054608A806F01C
:107A30001BFF002D60D008A9284609F083FA0C9B93
:107A40002E492F483246FDF731FD002211462846C7
:107A500009F080FA082206A9284609F099FA0C9F35
:107A60004A2F39DD274B069A9A4235D1264B079A81
:107A70009A4231D1A7F1080210460592FCF70DFB9E
:107A80000446C0B127440146059A284609F080FA09
:107A900017F8093CABB9631C1846059308F025FBA1
:107AA0003F28059B0DD804F1420200921749144863
:107AB0003246FDF7FBFC284609F03CFA20461FB091
:107AC000F0BD13490E483246FDF7F0FC4321204635
:107AD00007F0C8FC0024EEE7BDF81E3002939DF8C5
:107AE0001D3001939DF81C3000930A49069B044801
:107AF0003246FDF7DBFCEDE72C46DFE790250E0074
:107B000098E403206376B63101084100A4250E00F5
:107B1000C6250E00F4250E002DE9F8438046284BBB
:107B200048F8043B0446404600F08CFC02226423E3
:107B30000025C4E91B230823E367C4E92055C4E9F1
:107B40002255C4E92455C4E92655A5672020FCF731
:107B5000A2FAE66FA067013E760800EB86090746A9
:107B60004FF40070FCF797FA00F50073C4E92503A1
:107B7000C4F888304FF4FA614FF47A73C4E92D13D6
:107B800047F2305347F82600C4F88400C4F8800058
:107B9000C4F89000C4E92855C4E92A550949C4F835
:107BA0008C90C4F89C90C4F8B050C4F8BC30C4F8B1
:107BB000C850404600F08CFC2046BDE8F88300BF6A
:107BC00004280E0039260E0038B5064C23683BB950
:107BD000D020FCF760FA054608B1FFF79DFF25604D
:107BE000206838BD9CE4032010B5D1E9002386B09D
:107BF0000021044604910AB9D90705D5CDE902232D
:107C00000F4B05930F4B049302AB93E803006A46B6
:107C100082E8030094E8030083E8030092E803008D
:107C2000049A84E80300A168A260059A04911846AA
:107C3000E168E2600591FCF757FB204606B010BDF5
:107C40008F790D0075790D0010B503680446586FE3
:107C500004F048F8204610BD10B502698368043A64
:107C60009342044602D00433A36010BDC068FCF701
:107C700016FA63691A1D62615B68E36003F50072BE
:107C80002261F1E72DE9F04F87B004460190406F83
:107C9000DFF8A890DFF8A8A004F01CF8DFF8A4B083
:107CA000D4F88030D4F89020934205D101A8FFF792
:107CB000CBFF07B0BDE8F08F04F1780004F10408B1
:107CC0001F68FFF7C9FF404600F098FE00230246F8
:107CD0004146064602A800F09DFC029840F20221AF
:107CE00009F042F9054602A806F0BEFDCDB1082212
:107CF0000DEB02012846CDE9029A09F05BF907F184
:107D0000420008F0F2F9394600F14302284609F032
:107D100051F9284609F00EF9074832465946FDF751
:107D2000C5FB3146404600F0A9FE002FB8D04321E4
:107D3000384607F097FBB1E798E403206376B63145
:107D40000108410047260E00002908BFB0F5006F6A
:107D500038B505D0002908BF40280BD1092A09D120
:107D600005490648FDF7A2FBFFF72EFFBDE83840A6
:107D7000FFF788BF38BD00BF64260E0098E40320DB
:107D800070B586B0044604F08DFA48B9434B02A999
:107D9000CDE9023004F1C000FFF726FF06B070BD48
:107DA00094F8B2501DB1012384F8B330F6E703F024
:107DB000D1FFD4F8A830C01AD4F8AC309842EDD333
:107DC000261D2946304600F025FE0146C4F8A400D1
:107DD000002852D02046FFF71BFE0546C4F8A0003D
:107DE000002835D003F0B6FF02AE00252C4BC4F8B6
:107DF000A800314604F1C00002930395FFF7F4FE9A
:107E0000D4E9283003F1420200922649264AA4F818
:107E1000B050A84208BF0A4601332449244884F8D8
:107E2000B350FDF743FBFEF797F8D4F8A020214BA1
:107E30000593CDE9006511461F4B0294049311F898
:107E4000013B4232FEF7C0F93046FCF74DFAA5E798
:107E5000D4F8A42019491648FCF74FFA01213046FE
:107E600000F0D8FDD4F8A4102A46304600F00EFCED
:107E7000D4F8A030002BB5D190E7D4F88030D4F8F6
:107E800090209A4207D01B68C4F8A03004F1780013
:107E9000FFF7E2FEECE7C4F8A0007FE7217F0D00CA
:107EA00079820D0093260E00E2210E00B4260E000A
:107EB00098E403204D790D005D790D0097260E00A2
:107EC000C368CA689B1A9B105A1ED0E900301B1A5F
:107ED0009B1003EBC21388680A68801A03EBA000AA
:107EE000704737B505460190406F03F0F3FE05F18A
:107EF000800105F19000FFF7E3FF044650B9281D0B
:107F000000F0D6FDD5F8A03004461BB1D5F8A4305A
:107F100003B9013401A8FFF797FE204603B030BD36
:107F200013B5044604F0BEF990B103F013FFD4F882
:107F3000B430C4F8AC300D4BC4F8A80000936946C7
:107F4000002304F1C0000193FFF74EFE02B010BD04
:107F500094F8B2301BB1012384F8B330F6E7204621
:107F6000FFF7BFFF0028F6D0F0E700BF817D0D00CE
:107F70002DE9F34104460190406F03F0ABFE04F19C
:107F8000800104F19000FFF79BFFE36E834202D271
:107F90002046FFF777FEDFF84880104F261D304659
:107FA00000F086FD236F984205DC01A8FFF74CFE28
:107FB00002B0BDE8F0810121304600F02BFD0546FE
:107FC0000028ECD001460022304600F05FFB2A4634
:107FD00041463846FCF791F9E1E700BF98E40320F9
:107FE000D3260E0013B50446002004F00DF9012835
:107FF00005D012491248FDF770FA02B010BD04F125
:10800000740003F057FE0F4A002300214FF4046070
:1080100004F0DAF8FDF7A0FFFEF7B0F8201D00F03D
:1080200075FC2046FFF7A4FF074B00936946002329
:1080300004F1C0000193FFF7D7FDDEE7E6260E004E
:1080400098E40320497D0D00217F0D0070B5036881
:10805000044663B1436A45691E1DAE4204D955F812
:10806000040BFCF71CF8F8E72068FCF718F820462A
:1080700070BD2DE9F04706468946406A716973680C
:10808000471A09EBA7050135B3EB450F144627D96D
:108090005D1B6D083268AD000CB14FEA89042C44B9
:1080A0001444031DA142A3EB010213D9994202D04B
:1080B000204607F075FF74612368F36003F50073D1
:1080C0003361E3197362E359F36103F500733362BB
:1080D000BDE8F0879942EED0381D801A2044E8E7C9
:1080E00003F102084B452CBF9844C844B8F1005F27
:1080F00001D307F0BDF94FEA8800FBF7CCFFA8EBEE
:1081000005056D088246AD000CB14FEA8904726A1C
:10811000716904322C449142544403D0521A2046CF
:1081200007F03EFF3068FBF7BAFFC6E900A8C2E7D8
:108130002DE9F04186B004469DF830509DF834306A
:108140002B430F461646FFF73BFC0546002842D05E
:10815000434B44494448002E18BF33463A46FDF786
:10816000A5F9606F059403F0B5FDD4F89820D4F814
:108170009030043A934204F1780804F1900604F137
:1081800080072BD003B11D60D4F890300433251D37
:10819000C4F89030284600F08BFC394603903046F6
:1081A000FFF78EFE029004F07DF8DDE902320090C8
:1081B0002E492D48FDF77AF9284600F079FC002871
:1081C0003ED02046FFF75EFD2046FFF7D1FE05A812
:1081D000FFF73AFD012006B0BDE8F0813946304690
:1081E000FFF76EFE6FF06043984202D1204807F01F
:1081F00042F9D4F89C30A26F9A1AE36FA3EBA20362
:10820000012B04D8002201214046FFF732FF4FF432
:108210000070D4F89C80FBF73EFFC8F80400D4F847
:10822000903003B11D60D4F89C301A1DC4F89C2016
:108230005B68C4F8943003F50072C4F89820A6E790
:1082400039463046FFF73CFEE36E8342B9D304F073
:1082500029F80028B5D007490348FDF727F9B3E707
:108260006F290E0009270E0098E4032061270E00F5
:1082700031270E008D270E0073B590F8B0300446FC
:10828000002B41D090F8B130D0F8A420002B3DD085
:1082900052495348FDF70AF9D4F8A430D3B1261D4A
:1082A0000021304600F0B6FBD4F8A43098420546D1
:1082B0000DD10121304600F0ADFB002229463046A9
:1082C00000F0E4F9474946482A46FDF7EFF8002355
:1082D000C4F8A430D4F8A00010B1432107F0C2F8CC
:1082E0000023C4F8A030D4F8B830C4F8AC303E4B0A
:1082F00000936946002304F1C0000193FFF774FC6A
:1083000003F028FDC4F8A80002B070BD3749344816
:10831000FDF7CCF8D4F8BC30C4F8AC30D4F8A430B5
:108320004BB1D4F8A00010B1432107F09BF8002313
:10833000C4F8A030DBE7606F009403F0CBFCD4E915
:108340002032934213D0D4F8A02043F8042CD4F860
:108350008030043BC4F880306846FFF775FC244940
:108360001F48FDF7A3F82046FFF78CFCBFE704F198
:10837000800104F19000FFF7A3FD6FF06043984285
:1083800004F1780502D11B4807F075F8D4F88C2069
:10839000A36F9A4204D1012211462846FFF769FED5
:1083A0004FF40070D4F88C50FBF775FE45F8040CC0
:1083B000D4F88C301A1FC4F88C2053F8043CC4F84D
:1083C000843003F50072C4F8882003F5FE72C4F807
:1083D0008020D4F8A020C3F8FC21BDE7A0270E0020
:1083E00098E40320B3270E00817D0D00C3270E0003
:1083F000D5270E0031270E00014B024A1A60704744
:1084000098E40320D2210E0010B5074B044640F833
:10841000C03BFBF769FF04F17800FFF717FE201D52
:1084200000F0B2F9204610BD04280E0010B5044635
:10843000FFF7EAFF2046D02107F014F8204610BDD0
:1084400001207047F8B51F4D1F4B0446294640F8E0
:10845000043B06F054FA1D4904F1140006F04FFAEB
:10846000294604F1240006F04AFA0023C4E90E3339
:10847000C4E91233C4E91433C4E91633C4E9183328
:1084800084F834302364082363642020FBF703FE60
:10849000656C2064013D6D0800EB850706464FF4CE
:1084A0000070FBF7F8FD00F50073C4E9170346F808
:1084B0002500E064A064A0656765236567662046C3
:1084C000F8BD00BF6F290E0004290E0010280E0011
:1084D0007FB5051D0446284606F06FFA0E4968462A
:1084E00006F00DFA6946284606F0F6FA0646684692
:1084F00006F0BAF96EB1E3680022013B29466846EE
:1085000006F000FB6946284606F04FFA684606F07A
:10851000ABF9204604B070BD15280E0010B5C36B32
:10852000044613B93C3003F0ADFBE06BBDE81040EE
:1085300003F0B0BBC06B03F0B5BB000010B596B044
:108540006946044603F016FDD0B9019B5B04224640
:1085500006D515491548FBF7D0FE012016B010BD11
:1085600012481349FCF7B9FF204608F01BFD40F202
:10857000FF11204603F006FD80B90E492246E9E7C7
:1085800003F068FF0368022BF1D003F063FF0A4990
:1085900002680648FCF7A1FF0020DFE703F05AFF5E
:1085A00006490268F5E700BF22280E00A0E4032078
:1085B0003F280E0070280E005C280E007F280E0059
:1085C00038B51546044606F09AF94DB12B783BB103
:1085D0000449204606F01AFA2946204606F016FA03
:1085E000204638BD942E0E007FB505460E461C462B
:1085F0004969684606F0A6FA009904B9746A2246E9
:108600002846FFF7DDFF684606F02EF9284604B03D
:1086100070BD000070B50C468EB01A49CDE900322D
:10862000054606F06CF9E069E1680144043128462A
:1086300006F038F9211D06A806F0ACF9124902A887
:1086400006F05DF902A906A806F0F1F9DDE90032AD
:10865000064621460AA8FFF7C7FF0AA9304606F0DA
:10866000E6F90146284606F086F90AA806F0FCF865
:1086700002A806F0F9F806A806F0F6F828460EB0AB
:1086800070BD00BF6F290E0015280E002DE9F047C0
:1086900013468EB005460F46002A4AD0406803F0C4
:1086A00089FC0646002841D0DFF8B0A0DFF8A4908E
:1086B000DFF8A480304603F085FC002833D0827AAE
:1086C000082AF7D100F10B04696901AA204603F0DA
:1086D00099FE0128EED1019B9F42EBD1291D06A8EE
:1086E00006F058F951460AA806F009F90AA906A8A1
:1086F00006F09DF9214606F0A6F9014602A806F00B
:1087000049F90AA806F0B0F806A806F0ADF80298F4
:1087100008F048FC4046029A4946FCF7C7FE02A80A
:1087200006F0A2F8C6E7304603F054FC0EB0BDE8F0
:10873000F0870A4601460AA8FFF76CFF0A9808F07E
:1087400031FC0A9A03490448FCF7B0FE0AA806F077
:108750008BF8EBE717280E00A0E4032015280E0085
:1087600070B50368044663B1436A45691E1DAE4295
:1087700004D955F8040BFBF792FCF8E72068FBF7E7
:108780008EFC204670BD000010B5094B044640F831
:10879000403BFFF7E5FF04F1240006F065F804F123
:1087A000140006F061F8201D06F05EF8204610BDAA
:1087B00004290E0010B50446FFF7E6FF20466821A5
:1087C00006F050FE204610BDC368CA689B1A9B1075
:1087D0005A1ED0E900301B1A9B1003EBC2138868A5
:1087E0000A68801A03EBA000704700002DE9F047EB
:1087F0000446884600F108011830FFF7E5FF6FF0E6
:108800006043984202D1374806F035FE626A20681C
:108810006368111AA3EBA101012921D86169571AD4
:10882000BE10B51CB3EB450F36D95D1B6D0800EBD0
:108830008505131DA942A3EB010227D9994202D055
:10884000284607F0ADFB65612B68E36003F5007314
:108850002361EB196362EB59E36103F50073236253
:108860004FF40070656AFBF716FC6860A36913B1EA
:10887000D8F800201A60636A1A1D62625B68E361BF
:1088800003F500722262A361BDE8F0879942DAD055
:10889000381D801A2844D4E703F10209012B2CBFAC
:1088A000994409F10109B9F1005F01D306F0E0FD37
:1088B0004FEA8900FBF7EFFB626A6169A9EB0505E6
:1088C00004326D089142824600EB850503D0521AAE
:1088D000284607F065FB2068FBF7E1FBC4E900A927
:1088E000B1E700BF31270E0038B5056A8269043D43
:1088F000AA42034606D00AB1096811609A69043297
:108900009A6138BDFFF772FFFBE700002DE9F047E1
:10891000C368012B86B0044608D834493448FCF7B4
:10892000DCFD0026304606B0BDE8F0874068FFF762
:1089300005FE06460028F4D0636962682D492C487C
:10894000FCF7B4FD606803F035FB07460028E8D06B
:108950000023DFF8A490DFF89880A363384603F083
:1089600031FB0546002839D0837A082BF6D10B3528
:10897000616901AA284603F045FD0128EED1E36AAA
:108980007BB1294602A805F0BAFF04F1240102A830
:1089900006F0A2F8824602A805F066FFBAF1000FC1
:1089A000DCD0236829469B68204698470028D5D00C
:1089B000019AA36B9342B8BFA2632B464946404637
:1089C000FCF774FD2046FFF7A9FD04F1400001A962
:1089D000FFF78AFF2046FFF7ADFDBFE7384603F0FB
:1089E000F9FA012384F834309CE700BF95280E0083
:1089F000A0E40320AA280E00C6280E0010B590F8A7
:108A0000343004460BB9FFF781FFA06B0130A0633F
:108A100010BD000070B590F8343004460E460BB916
:108A2000FFF774FF2046FFF779FDA36CA26D934218
:108A30001ED01D682EB1226D043A93420CD004332F
:108A4000A3642046FFF776FD25B10A490A482A4665
:108A5000FCF72CFD284670BDE06CFBF720FB636D36
:108A60001A1D62655B68E36403F500722265E7E73F
:108A70000025E6E7DC280E00A0E4032013B590F8FB
:108A80003430019104460BB9FFF740FF019BA26B04
:108A90009A42B8BFA3632046FFF740FD01A904F145
:108AA0004000FFF721FF2046FFF744FD02B010BD54
:108AB00038B50446FFF732FD04F1480104F15800CF
:108AC000FFF782FE05462046FFF734FD284638BDF5
:108AD000014B024A1A607047A0E40320DB210E001C
:108AE0007047704703685B681847012A08BF016038
:108AF00000207047022A06D0032A02D0012A00D1A2
:108B00000160002070470B680360FAE7022A06D074
:108B1000032A02D0012A00D10160002070470B68AF
:108B20000360FAE7022A06D0032A02D0012A00D104
:108B30000160002070470B680360FAE7012A08BF54
:108B4000016000207047022A06D0032A02D0012AC1
:108B500000D10160002070470B680360FAE7022A29
:108B600006D0032A02D0012A00D1016000207047FC
:108B70000B680360FAE7022A06D0032A02D0012A12
:108B800000D10160002070470B680360FAE7022AF9
:108B900006D0032A02D0012A00D1016000207047CC
:108BA0000B680360FAE7012A034602D10160002046
:108BB0007047022A04BFD1E90001C3E90001F6E7CA
:108BC00010B5034B03600446FDF774FB204610BD4F
:108BD000882B0E0010B50446FFF7F2FF204640F246
:108BE000BC5106F03FFC204610BD10B5C3690446D9
:108BF0001BB103F0AFF8A06110BD0368BDE81040E1
:108C00009B68184710B5006883680BB906F036FCFE
:108C1000BDE81040C36818470B460168184604F0C9
:108C20001BBC0B460168184604F016BC10B5044680
:108C3000C2688068002107F0CDF9A36822691A6034
:108C4000A368A28A9A80D4E90232DA8010BD0B2987
:108C500010B51AD9836802691C68944215D19C88A2
:108C6000828A944211D1DC888AB294420DD8C268BB
:108C7000914205D200245C54C26801318A42FAD87C
:108C8000D0E902320120DA8010BD0020FCE708B5EF
:108C90000068036800219B699847012008BD08B55A
:108CA0000068036801219B699847012008BD08B549
:108CB00006F022F980F00100C0B208BD02680B4640
:108CC0001846D2F87C1704F0C7BB10B58369044678
:108CD00033B131B1236820469B6898470023A361D4
:108CE00010BD03F037F8A369C01AE3699842F1D2C6
:108CF000F6E7000030B587B00D46002202A9032038
:108D0000029203F03FFA68BB029C0CB1236923B9BD
:108D1000154A00210A2003F0F5F90023ADF80E30C2
:108D20000C23ADF80C3001AB04930423059303AA84
:108D30002369012120469847A0B9BDF8043007EE09
:108D4000903AFBEECC7AF5EEC07AF1EE10FA09DD3E
:108D500017EE900A06F080FD41EC100B0121284629
:108D600004F09EFB07B030BD45BD0D0010B4426855
:108D70000346541001EB6200D20748BF0A591B6832
:108D80005DF8044B48BFD3581847B0F1006F08B5E1
:108D900001D306F06DFBBDE808400001FBF77BB98D
:108DA0007047000010B5074B044640F8203B05F023
:108DB0005BFD6068044B236008B102F083FF20462E
:108DC00010BD00BF042C0E00E42B0E0010B50446AD
:108DD000FFF7E8FF2046502106F044FB204610BD77
:108DE00070B5104B0360044600F5BA6005F03CFD19
:108DF000D4F8C455D4F8C865AE4204D02846FBF771
:108E000073FA1035F8E7D4F8C40508B1FBF747F951
:108E100004F10800FFF7D4FE606808B102F052FFC9
:108E2000204670BD982B0E0010B50446FFF7D8FF02
:108E3000204640F2E45106F015FB204610BD00002C
:108E400010B50446043020601022002107F0C2F85B
:108E500001232375024B636000232372204610BD5B
:108E60001000030038B50446006928B185680C215C
:108E700006F0F8FA2846F8E7204638BD70B5037DBD
:108E800005460E46CBB10368DB6823B19A88042AF5
:108E900017D09B68F9E70C49102006F0E5FA044664
:108EA00068B11022002107F095F8084B23600423D5
:108EB000A3802B692C61C4E90236284670BD287551
:108EC000FBE7DE60F9E700BF202F0E001000030073
:108ED000F8B5037D05460F461646B3B10368DB6857
:108EE000ABB19A880E2A06D09B68F9E79B6873B1EC
:108EF0009A880E2AFAD153B11A7BBA42F6D1DA898E
:108F000031888A4201D00A43DA812846F8BD0B49EC
:108F1000142006F0A9FA044670B11422002107F0CB
:108F200059F8074B23600E23A3802B69A360338875
:108F30002773E3812C61E8E72875E6E7202F0E0010
:108F40001000030013B504460846019107F0CDF860
:108F500001990246204604F071FB204602B010BD84
:108F600013B504460846019107F0BFF8019902467F
:108F7000204602B0BDE8104004F02CBB10B50368D9
:108F800004460BB902F096FE2068BDE8104002F0DE
:108F9000A1BE10B504460430FFF7F0FF2368E16876
:108FA0001B692046984718B9236820465B69984793
:108FB000606802F097FE012010BD70B504460430D1
:108FC000FFF7DCFF206A002107F0CEFF431C0546B7
:108FD00008D1236820465B699847606802F082FEEA
:108FE000012070BDD4E9021207F0D2FF23680146C8
:108FF0001B69204698470646284607F09BFF002E2F
:10900000E7D0EAE738B504460430FFF7B7FF206A37
:109010004FF4DB7240F2026107F0A6FF431C0546E5
:1090200006D0D4E9021207F0C5FF284607F082FFF8
:109030006068BDE8384002F055BE00000B4A70B5CC
:10904000002304460D461646D2E900018D4208BFB2
:10905000844203D106EB4313986970BD0133042B9E
:1090600002F12002F0D10020F7E700BFA8E40320BE
:109070000B4A70B5002304460D461646D2E900019E
:109080008D4208BF844203D106EB4313986870BD3C
:109090000133042B02F12002F0D10248F7E700BFB0
:1090A000A8E403206F290E0070B50446C06808B11B
:1090B000FAF7F5FFD4E90056AE4204D02846FBF794
:1090C00013F91035F8E7206808B1FAF7E8FF2046F1
:1090D00070BD10B50446103005F0C6FB204605F003
:1090E000C3FB204610BD00002DE9F043A3B00446A9
:1090F000FFF744FF4FF4007003F064F905460028C1
:109100005BD06068002107F02FFF431C064651D05A
:109110000CA907F017FFDDF84090A169494552D22C
:109120000022304607F016FF211D04A805F032FC8E
:1091300004A908A805F02EFC264908A805F083FC20
:109140000146684605F026FC08A805F08DFB04A83A
:1091500005F08AFB00984FF4DB7240F2026107F0E1
:1091600003FF0746B8B1A3694B4511D24FF4007213
:109170002946304607F00CFFB0F1000808DD4246F2
:109180002946384607F016FFA0694044A061EAE787
:10919000384607F0CFFE304607F0CCFE606807F097
:1091A00001FF6168009806F041FF0023A361684653
:1091B00005F05AFB284603F00DF9206802F092FDF5
:1091C00023B0BDE8F083606807F0ECFE0023637510
:1091D000F0E700BF10290E0030B5037D97B00446BC
:1091E00063B1002505756946406802F0C3FE20B9E9
:1091F000049D002DD4BF002501256575607D17B045
:1092000030BD0B68036013B15A6801325A60704771
:10921000F0B58FB004460D4603F0B5FE052832D1F7
:10922000284604F0E8F82146A66851F8043B049368
:1092300005A8FFF7E6FF04AA314608A804F095F850
:1092400005A8FBF7FDFF08A804F0A6F898B10B9C51
:10925000089B029309A903A8FFF7D3FF214602AA9E
:1092600004A803F082FE03A8FBF7EAFF294604A83E
:10927000FFF7CEFFE4E7284604F09EF809A8FBF7C5
:10928000DFFF0FB0F0BD204603F07DFE062830D191
:10929000284604F0BCF8214608A8FDF79BFF08A863
:1092A00004F050F808B308A904A8FDF7A4FF069934
:1092B0002846FFF755FE05A8FBF7C2FF0C9C089B4C
:1092C000029309A903A8FFF79CFF02AA214604A85C
:1092D00003F04BFE03A8FBF7B3FF04A82946FFF7F2
:1092E00097FF05A8FBF7ACFFD9E7284604F06DF817
:1092F000C4E7204603F047FE04281AD12146A66899
:1093000051F8043B049305A8FFF77BFF04AA3146FC
:1093100008A803F0DBFF05A8FBF792FF0A9901916B
:10932000084606F0E2FE01990246284604F062F97A
:10933000A4E7204603F027FE0228204606D103F0CA
:109340004BFE0146284604F06FF89AE703F01BFE37
:10935000012803D1284604F0D5F892E7204603F00F
:109360009BFE57EC106B06F08FF8304653EC102B39
:10937000394606F031FD40B13946304606F05EFD13
:109380000146284604F068F87BE747EC106B284656
:1093900004F0A4F875E71FB50C46014601A8FFF7D5
:1093A000D1FD214601A8FFF733FF02A8FBF748FFD4
:1093B00004B010BD2DE9F04F85B0012A054688465E
:1093C0001746039304D80026304605B0BDE8F08F59
:1093D000467D002EF7D0104602F0F4FF0446002828
:1093E000F1D02846FFF7CAFD6868002107F0BCFDF0
:1093F000B0F1FF3F814626D03A46214607F0C8FD2E
:10940000B0F1000A1DDD04EB0A0313F8012D0A2A4E
:109410001BD0BAF1010AF8D1564602E0404603F0EB
:10942000CBFF484607F086FD286802F05BFC20462B
:1094300002F0D0FF039B002BC6D02846FFF754FE56
:10944000C2E70026EDE70026EEE7404603F0D3FF33
:1094500004EB0A030293A2464FF0020B029B534512
:10946000DCD90A21504606F0FAFD4FF000020190C7
:109470000270504606F039FE013083445F45CDD37B
:1094800041465046FFF787FF019B03F1010AAAEB13
:109490000401A961E2E7000013B53223009340F212
:1094A0006E2200F5277300F12C010446FCF71EFF25
:1094B000024B2360204602B010BD00BF882B0E0077
:1094C0002DE9F843834B844E036004460025834B0B
:1094D0004360856004F2D4580C30FFF7DDFF31465D
:1094E000C4F8C855C4F8CC55C4F8D055404605F06A
:1094F00006FA04F5C363C4F8F0352023C4F8F43544
:10950000774BC4F8F835774BC4F8E8354FF00109CC
:109510004FF47A7304F5C1673146C4F80436C4F8D1
:10952000E455C4F8EC55A4F8FC95C4F80056384648
:1095300005F0E5F96C4BC4F8E835C4F83856C4F8C2
:109540003C56C4F84056C4F84456C4F84856C4F8CB
:109550004C56C4F85056C4F85456C4F8585604F241
:109560005C60FFF76DFC6149C4F89856C4F89C56DE
:10957000C4F8A056C4F8A456C4F8A856C4F8AC560B
:10958000C4F8B056C4F8B456C4F8B856C4F8BC56BB
:10959000C4F8C056C4F8C456C4F8C856C4F8CC566B
:1095A000C4F8D056C4F8D456C4F8D856C4F8DC561B
:1095B000C4F8E056C4F8E456C4F8E856C4F8EC56CB
:1095C000C4F8F056C4F8F456C4F8F856C4F8FC567B
:1095D000C4F80057C4F80457C4F80857C4F80C5727
:1095E000C4F81057C4F8145704F5E560C4F81857C8
:1095F000C4F81C57C4F82057C4F8245705F07FF965
:109600003146C4F83857C4F83C57C4F84057C4F83A
:109610004457C4F84857C4F84C57C4F8505704F29C
:10962000547005F06CF93146A4F86497C4F8685793
:1096300004F26C7005F063F904F5F2634FF0FF304B
:109640004FF0FF31C4F87C57C4F88057C4F88457F2
:10965000C4F88857C3E9000104F5F3636FF07F4055
:109660000021C3E90001224BC4F8A03742F2107375
:10967000C4F8A4371F4BC4F8A8371F4BC4F8B4373D
:109680001E4BC4F8B0371E4BC4F8E0371D4BC4F86E
:10969000E4371D49C4F8AC57C4F8B857C4F8BC57F0
:1096A000C4F8C057C4F8C457C4F8C857C4F8CC5756
:1096B000A4F8D057C4F8D457C4F8D857C4F8DC5726
:1096C000404605F07AF91149384605F076F920460A
:1096D000BDE8F883D42B0E006F290E00982B0E00E6
:1096E000CEB67CD8042C0E00A82B0E0015290E0037
:1096F000E0E60B00A99C0D006D8D0D00A78B0D0001
:1097000034E5032021290E002B290E0043290E00E9
:1097100038B5074C236843B94FF4FD60FAF7BBFC3A
:10972000054608B1FFF7CCFE2560206838BD00BFB4
:109730002CE50320F7B50E460546FFF7E9FFD0F804
:109740009C170024224601F4007313431ED0FFF738
:10975000DFFF214900F2E470FBF7A8FEFFF7D8FF16
:109760000746304606F0C1FC00940346D7F8E417DC
:109770003246012002F0EEFCFFF7CAFF0094D0F859
:10978000E417164A0223012002F0E4FC2846FFF702
:10979000F5FB68684FF4DB7240F20A2107F0E4FB46
:1097A000431C044611D0304606F09FFC3146024669
:1097B000204607F0FFFB0A490122204607F0FAFB8A
:1097C000204607F0B7FB01236B75286803B0BDE89E
:1097D000F04002F087BA00BF56290E006D290E0036
:1097E0006E290E0070B5ADF5227D06AE0C4640F236
:1097F0006E2200210546304606F0ECFB0F4A01922E
:10980000002340F26D2201A8CDE904238DF8083031
:10981000039603F0FCFDA3680BB905F02FFEE36887
:1098200001A92046984701A803F0CFFD31462846FC
:10983000FFF780FF0DF5227D70BD00BF3C2D0E00AF
:1098400038B5044604300D46FFF798FBE3686068BE
:10985000043BAB4226BFA3685D59002502F042FAE3
:10986000284638BD70B5044604300D461646FFF74D
:1098700085FBE368043BAB4208D3A3685A59B24264
:1098800004D05E5123682046DB6898476068BDE8D5
:10989000704002F027BA70B5D0E900560446AE42D7
:1098A00004D02846FAF720FD1035F8E7206808B103
:1098B000FAF7F5FB204670BD38B5002383608B684E
:1098C00004460D462BB102229847EB68E360AB6873
:1098D000A360204638BD022A37B5044608D0032AC3
:1098E00012D0012A01D10B680360002003B030BD03
:1098F000096801911020FAF7CEFB054610B10199D5
:10990000FFF7DAFF2560F0E70468002CEDD0204671
:10991000FAF7EAFC1021204605F0A4FDE5E738B58A
:10992000002383608B6804460D462BB102229847C2
:10993000EB68E360AB68A360204638BD38B5002310
:1099400083608B6804460D462BB102229847EB6872
:10995000E360AB68A360204638BD10B584680CB9DD
:1099600005F08CFDBDE81040C368184770B5046869
:109970000D46D4E900011646FFF77AFB014628465A
:10998000FFF7EEFAF4E80201FFF758FB32463060C9
:1099900029462046FFF7E1FF012070BD38B50023BE
:1099A00083608B6804460D462BB102229847EB6812
:1099B000E360AB68A360204638BD022A70B5044658
:1099C00007D0032A14D0012A01D10B6803600020BC
:1099D00070BD18200E68FAF75EFB054630B13146BF
:1099E000F1E80223E0E80223FFF7D8FF2560EEE765
:1099F0000468002CEBD004F10800FAF775FC18217C
:109A0000204605F02FFDE2E770B5D0E90056044688
:109A1000AE4204D02846FAF767FC1035F8E7206814
:109A200008B1FAF73CFB204670BD73B504680546E3
:109A30000E466B689C420CD08DF80760A3680BB98A
:109A400005F01CFDE36820460DF10701984710342E
:109A5000EFE702B070BD002B08BFB2F5006F38B55C
:109A600005D0002B08BFB2F5802F06D038BD0121EC
:109A700000F5DF60FFF7D9FFF8E7012380F8D03762
:109A8000F4E730B585B0154604460391FFF740FE74
:109A9000039B00952246FFF7DEFF05B030BD2DE9A0
:109AA000F0410568C468064600276FF00108336975
:109AB0009C4212D0236802330AD0AB680BB905F080
:109AC000DDFCEB6821462846984720B9C4F80080A1
:109AD00010350834EBE70746FAE73846BDE8F08171
