:02000002D0002C
:1040000000400D0054340E00000006000D000501B4
:084010000401FD08000000009E
:0440180094210E00E1
:1040200009480A49884208B505D0094A824202D0A7
:10403000121A0BF0AFFF0748074A0021121A0BF0C3
:10404000D1FF014808BD00BF0CE2032044320E003E
:10405000F0E30320F0E30320F0E7032070B5074E00
:10406000074C0BF0FFF8A41BA4080025A54200D1C3
:1040700070BD56F8043B98470135F7E7FC310E0058
:1040800038320E0000F04CB808B500F08DF8BDE8ED
:1040900008400BF09FB808F09BB908F099B908F0F8
:1040A0009FB908F09DB9000008B5034A00210C2013
:1040B00008F02EF8FEE700BF51BD0D000078B0FA01
:1040C00080F0400970470123037070477047006A11
:1040D0000368DB68184700000A4B10B5044603600C
:1040E00009F04AFC214609F00CFE0BF02BF80BF00E
:1040F0001DF82046044B40F8043B09F0EFFC204635
:1041000010BD00BF0C220E00F4210E0010B50446B5
:10411000FFF7E2FF204624210BF0ACF9204610BD4A
:1041200010B5174C174918480023042208F0A0F8CE
:10413000164A1749204608F08AFA164A16492046B8
:1041400008F085FA2046154C154A164908F07FFA02
:104150002046012100F066FE0021204600F044FCCC
:104160007C21204600F0BCFB02F068FE03F074F8EE
:1041700007F040FC04F006FCBDE8104005F00EBD61
:1041800023C60D0074E40320A8210E00AE210E000A
:104190003D450D00B7210E00AD440D00FCE30320AA
:1041A000C5210E00DD440D0008B504F0EBFB06F060
:1041B000BCFF044800F016FF02F040FEBDE80840D6
:1041C00002F02EBDFCE3032070B5D0E900531426A5
:1041D000044606FB0356AE4204D028460AF04CFBC8
:1041E0001435F8E7206808F0FBF8204670BD2DE98B
:1041F000F843B1F10008074635DD4FF0140909FB1B
:1042000008F008F0E5F80546A8B3D7E9004684426F
:1042100009FB064615D2864214D9143EA4F11409AE
:10422000341B0444B1451FD02CB1314620460AF05E
:104230009FFB337C237430460AF01EFB143E143C73
:10424000F0E711D0A946A6420ED0214648460AF012
:104250008FFB237C89F8103020460AF00DFB1434C4
:1042600009F11409EFE70025386808F0B9F83D6056
:10427000C7F808800120BDE8F8832DE9F04100234C
:10428000C0E9003383600D4649689942044617DD52
:10429000FFF7ADFFA0B1D5E900634FF01408276820
:1042A00008FB0368B04509D02FB1314638460AF003
:1042B00079FB337C3B7414361437F3E76B68636027
:1042C0002046BDE8F081000030B597B045490CA804
:1042D0000AF01DFB012444498DF8404011A80AF062
:1042E00016FB002302216846CDE900338DF85440C7
:1042F0000293FFF77CFF98B1009C34B10CA92046D3
:104300000AF050FB9DF84030237411A904F1140009
:104310000AF048FB9DF8543084F8243002230193BE
:104320000AF010FF6946054603A8304CFFF7A5FFC9
:1043300003A906A8FFF7A1FF2D4B236006A909A832
:10434000FFF79BFF09AA1E21201D09F034FE09A8D2
:10435000FFF73AFF06A8FFF737FF264B23602562D9
:1043600003A8FFF731FF244B23600AF0EBFE4FF464
:1043700016510AF0D7FE09F0FFFA214609F0ADFD0B
:104380006846FFF721FF11A80AF076FA0CA80AF098
:1043900073FA0021012007F025FF184B184A9A6094
:1043A00000241C609C809C71022007F003FF012107
:1043B000042007F0ADFC0BF039F8692201461148E2
:1043C00000F09EF90AF080FF234622460D210AF0F4
:1043D00083FF0AF079FF2346224621460AF084FF34
:1043E00017B030BDD4210E00DD210E0040E40320C3
:1043F000F4210E00E42D0E000C220E00F0E3032049
:104400000000FFFFFCE303200EB410B58DB00FAA2F
:10441000016852F8044B039200232020CDE90403E5
:10442000CDE900421E2004AA07F092FE0DB0BDE8BF
:10443000104003B0704738B5046805467CB1636826
:10444000013B63605BB9236820469B689847A3687B
:10445000013BA3601BB923682046DB6898472846C8
:1044600038BD000000B50D4B0D4ADB7AC5B04FF4E6
:10447000807104A807F0D4FF0A4B0B491B788DF814
:10448000003004AA3C2302A808F0EEF903A8FFF7C5
:10449000D2FF012045B05DF804FB00BF64E40320B7
:1044A0001C220E0084E40320C0210E0007B50A225E
:1044B000006801A90CF03CFD172809D8064BD872FA
:1044C00007F0F6FE30B1FFF7CDFF03B05DF804FB57
:1044D0000020FAE70120F8E764E4032000B5C7B044
:1044E00000680A2203A90CF023FD18281AD80F4BE4
:1044F0000F4A18734FF48071034606A807F090FF27
:1045000007F0D6FE60B10B4B0B491B788DF80030DD
:1045100004A83C2306AA08F0A7F905A8FFF78BFF1B
:10452000012000E0002047B05DF804FB64E40320B4
:1045300030220E0084E40320C0210E0030B524494F
:104540008BB004460AF0BEFA38B3214920460AF07F
:10455000B9FA054648BB1F4920460AF0B3FA0028BD
:1045600033D01D4B1D499D72182204A80BF0DFFDAE
:104570001B4804A9FFF748FF07F09AFE28BB194B18
:1045800019491B788DF8003002A83C2304AA08F0D2
:104590006BF903A8FFF74FFF17E00E4920460AF01A
:1045A00091FA0028D1D10BB030BD0B4B0F49182226
:1045B000012404A89C720BF0BAFD094804A9FFF776
:1045C00023FF07F075FE0028D9D10120EBE700BFDB
:1045D0006E2D0E00062D0E0064E4032047220E000F
:1045E0007CE5032084E4032059220E004F220E00B4
:1045F000014B01221A70704784E4032010B51D4B53
:104600002DED028B1C8882B0012120460AF0B2FEFB
:10461000022007F055FF184B18880AF0D7FE08EE65
:10462000100A002120460AF0A5FEDFED147A9FED66
:10463000147A144BB8EEC88AF2EE046A28EE278A80
:10464000C8EE077A9FED107A77EEC77A87EEA67AE2
:1046500017EE100A83ED007A0BF006F90B4ACDE94C
:10466000000110210A4807F0DBFE012002B0BDEC7A
:10467000028B10BDD42B0E00D62B0E0000404E45F1
:1046800000F07F4520E403200000FA435E220E0084
:1046900074E40320704710B5202104460AF0EAFEB6
:1046A000204610BD0EB410B58DB00FAA016852F8A7
:1046B000044B039200232020CDE90403CDE90042FE
:1046C000012004AA07F044FD0DB0BDE8104003B07E
:1046D00070470EB410B58DB00FAA016852F8044BA4
:1046E000039200232020CDE90403CDE900423220CB
:1046F00004AA07F02DFD0DB0BDE8104003B07047CF
:1047000010B50272FF2242810022C0E903224261F9
:104710000276C261024A034C1060C0E9004110BD3C
:104720008CE4032068240E002DE9F8439DF82080D6
:104730000446894616461F46B8F1000F02D040686D
:1047400008F0BBFA217A606808F0AFFA6068036885
:1047500049469B6898476068002108F0AAFA054618
:1047600000BB0123217A60683A4608F08CFA874240
:10477000034609D13744BE421CD0606803685B69B8
:10478000984706F8010BF6E70B490C484A46FFF735
:10479000A0FFB8F1000F02D0606808F097FA284631
:1047A000BDE8F8830346064904484A46FFF791FFEF
:1047B0000025EEE70125ECE766220E0088E40320E1
:1047C0008B220E0007B500930123FFF7ADFF03B066
:1047D0005DF804FB73B54389FF2B044610D0194ED6
:1047E000194D07F0BDFAB0F57A7F09D260890AF059
:1047F000DAFD012804D031462846FFF705FEF0E730
:1048000001230DF1070228212046FFF7DBFF30B915
:104810000D480E49FFF7F8FD002002B070BD9DF86D
:104820000730182BF4D101230DF10702292120466E
:10483000FFF7C8FF0028EBD09DF80730052BE7D124
:10484000EBE700BFAF220E0088E40320C4220E0075
:104850002DE9F0419DF8188004460F4615461E4686
:10486000B8F1000F02D0406808F027FA217A60689A
:1048700008F01BFA6068036839469B6898472E4425
:10488000B542606805D0036815F8011B9B6898471E
:10489000F6E7012108F00DFA034670B1084909480E
:1048A0003A46FFF716FF0025B8F1000F02D0606806
:1048B00008F00CFA2846BDE8F0810125F4E700BFB6
:1048C000D1220E0088E403201FB58DF80F2000933D
:1048D0000DF10F020123FFF7BBFF05B05DF804FBEC
:1048E000F8B50A460C4605461A491B48FFF78CFDE9
:1048F000002CB8BFEC687CB9012322461B21284656
:10490000FFF7E2FF1549024606461348FFF7CAFEC5
:10491000EC606C613046F8BD032C19DDA7101F2F29
:10492000A8BF1F27BA0062F07C020123D2B21B216C
:104930002846FFF7C9FF3A46034609490646064896
:10494000FFF7B0FE4FF4FA635F43EC606F61E1E79D
:104950000127E7E7F6220E0088E4032000230E007B
:104960001C230E000B4607490246086848B1002B7D
:1049700008BFB2F5006F04D1C36813B10021FFF77F
:10498000AFBF70478CE403202DE9FF419DF82880DC
:10499000054616461F46B8F1000F04D04068019145
:1049A00008F08BF90199019100230DF10F022846BF
:1049B000FFF708FF044660B19DF80F3003EA0602D6
:1049C0003A43934205D0019900232846FFF77CFF24
:1049D0000446B8F1000F02D0686808F077F9204665
:1049E00004B0BDE8F081000037B504460A463F48F0
:1049F0000D463F49FFF756FE606808F05EF9002358
:104A00001A460F212046FFF75FFF002313221021D3
:104A10002046FFF759FF00233C2211212046FFF7D3
:104A200053FF0023E02212212046FFF74DFF002311
:104A3000262213212046FFF747FF00231A4617219D
:104A40002046FFF741FF15F0010348D000230093F3
:104A5000E322232318212046FFF796FF00231A465E
:104A600019212046FFF730FF00231A461A2120465D
:104A7000FFF72AFF00231A461B212046FFF724FFD9
:104A800015F0020F4FF000030CBF1A4688221C21BC
:104A90002046FFF719FF00231A4620212046FFF782
:104AA00013FF0023F02221212046FFF70DFF0023F2
:104AB0001A4626212046FFF707FF002380222721E0
:104AC0002046FFF701FF00231A4630212046FFF75A
:104AD000FBFE606808F0FAF8012003B030BD232225
:104AE00018212046FFF7F0FEB8E700BF88E4032056
:104AF00040230E0013B514460DF10702FFF762FEC6
:104B000028B19DF807301C420CBF0120002002B0E4
:104B100010BD13B514460DF10702FFF753FE28B17F
:104B20009DF807301C4214BF0120002002B010BDC8
:104B300007B5D2430093D2B20023FFF725FF03B09D
:104B40005DF804FB37B501230DF107020F21044680
:104B5000FFF738FE054638B91E491F48AD22FFF75A
:104B6000B8FD284603B030BD9DF8073013F0200F84
:104B70004FF001030BD02022E3610F212046FFF705
:104B8000D7FF164A16491448FFF73EFCE9E708220A
:104B900017212046FFF7BDFF18B10223114AE36138
:104BA000F0E79DF807301A0709D50323E3610822CF
:104BB00001230F212046FFF7BBFF0B4AE2E75B070B
:104BC000CFD50422E26101230F212046FFF7B0FF79
:104BD000064AD7E784230E0088E4032055230E00FD
:104BE000A3230E005E230E006E230E007E230E0014
:104BF00007B500931346FF22FFF7C6FE03B05DF82A
:104C000004FB2DE9F3479DF828A005460C46914684
:104C10001F46BAF1000F02D0406808F04EF807B303
:104C2000202F3E4628BF20267F2C26D83319802BE4
:104C300001D9C4F18006012304223F212846FFF751
:104C400077FF002364F07F0100934A463346C9B2E0
:104C50002846FFF769FD804628B13444BF1BB144A4
:104C6000DDE74FF00108BAF1000F02D0686808F0E4
:104C70002DF8404602B0BDE8F087012304223F2111
:104C80002846FFF7B5FFDCE72DE9F3479DF828A09C
:104C900005460C4691461F46BAF1000F02D0406807
:104CA00008F00BF807B31F2F3E4628BF1F267F2CA6
:104CB00026D83319802B01D9C4F1800601230422A0
:104CC0003F212846FFF734FF002364F07F01009363
:104CD0004A463346C9B22846FFF7BAFD804628B196
:104CE0003444BF1BB144DDE74FF00108BAF1000FB7
:104CF00002D0686807F0EAFF404602B0BDE8F087DE
:104D0000012304223F212846FFF772FFDCE7000061
:104D100030B585B00D68D1E9043203954D68029530
:104D20008D680195C96800910133044902F26C72E3
:104D3000044609F00FFF204605B030BDB4230E0035
:104D400003110A2200F00F0002FB0300704738B580
:104D5000044600781546FFF7F3FF08606078FFF718
:104D6000EFFF4860A078FFF7EBFF8860E078FFF77F
:104D7000E7FFC8602079FFF7E3FF013808612DB92C
:104D8000651D2878FFF7DCFF886138BD6079FFF783
:104D9000D7FF6430A51D4861F3E7000070B501231B
:104DA00088B00D461A4610210446FFF7A3FEF0B165
:104DB00008230126204600960DEB03020021FFF791
:104DC000B3FC044698B1324629460DF10900FFF7BD
:104DD000BEFF04A8FFF79CFF0848049A0849FFF7A4
:104DE00013FB04A809F048FD204608B070BD24223A
:104DF000002128460BF0F6F80024F5E788E40320AC
:104E0000D2230E0030B58BB00D4601A9FFF7C6FFC7
:104E1000044620B101A807F04BFBC5E9000120467C
:104E20000BB030BD10B5044688B011B1406807F032
:104E30000DFF2046FFF7CEFC70B32046FFF782FE41
:104E400001231A4610212046FFF754FED8B10AF07C
:104E50005BF8C0B902A92046FFF7D4FFDDE90201E3
:104E600009F059FF0F4B10491B68009304A8DDE9B6
:104E700002230AF007F80D48049A0D49FFF7C4FA17
:104E800004A809F0F9FC0B4A002300214FF400604C
:104E900007F0A0F908B010BD07490448FFF719FC56
:104EA000F1E700BF14E20320D0E5032088E40320EB
:104EB000E0230E0065490D00FD230E000A2290FB41
:104EC000F2F302FB130093FBF2F102FB113140EA13
:104ED0000110C0B2704770B5054600680C46164612
:104EE000FFF7ECFF20706868FFF7E8FF6070A868C4
:104EF000FFF7E4FFA070E868FFF7E0FFE0702869C3
:104F00000130FFF7DBFF20712EB9661DA869FFF79E
:104F1000D5FF307070BD6A69642392FBF3F003FB28
:104F20001020FFF7CBFFA61D6071EFE7F0B587B04B
:104F3000054602A816460C46FFF7EAFE1E48029AEE
:104F40001E49FFF761FA02A809F096FC16B16868DD
:104F500007F0B3FE204601220DF1090100278DF86C
:104F60000870FFF7B8FF01231A4610212846FFF703
:104F70003FFE0446E8B1082300970DEB03023946D3
:104F80002846FFF765FC044660B101231A4610214C
:104F90002846FFF7CDFD16B1686807F097FE20465A
:104FA00007B0F0BD4FF48D7205490348FFF791FB40
:104FB000F1E74FF48F72F7E788E4032015240E0021
:104FC00023240E0013B504466846CDE900230AF0F9
:104FD000CFFF9DF8102001462046FFF7A7FF02B043
:104FE00010BD0000F0B5057E89B0044675BB09F020
:104FF0008BFF58B30026002704A92846CDE9046793
:1050000007F06EF910B30125257609F09AFF009597
:105010000246C3172046CDE90223FFF7D3FF02A9BA
:105020002046CDE90267FFF7EDFE124B12491B68DF
:10503000009304A8DDE9022309F024FF0F48049A35
:105040000F49FFF7E1F904A809F016FC636973B191
:1050500006F086FE2369C01A6369984207D306F0FA
:105060007FFE4FF0FF3120612046FFF739FC09B089
:10507000F0BD00BF14E20320D0E5032088E4032044
:105080003E240E00014B024A1A60704788E4032058
:1050900054240E00022A06D0032A02D0012A00D18D
:1050A0000160002070470B680360FAE710B5012328
:1050B00003748368044643B1C0689847012363744E
:1050C0000020BDE8104006F01BBE00680028F5D0A7
:1050D00083680BB90AF0DAF9C368EEE710B58368A4
:1050E000044613B1032201469847204610BD38B547
:1050F0000568044635B12846FFF7F0FF1021284621
:105100000AF0B8F920461421BDE838400AF0B2B9D7
:1051100010B503680446ABB1586806F0A1FD88B924
:1051200023685A7C12B9586806F0A2FD23685868B3
:1051300006F0A6FD20680023236018B1BDE81040EA
:10514000FFF7D5BF10BD0000054A02600022426093
:10515000027380F8BD22C0F8C822C0F8D022704780
:1051600094240E0010B5074C236843B94FF43570F2
:10517000FEF791FF034608B1FFF7E6FF23602068C2
:1051800010BD00BF90E4032038B50446406890B1DC
:1051900002232373FFF7BCFF656855B12846FFF76C
:1051A000B7FF286808B1FFF7A2FF042128460AF0DC
:1051B00061F90023636038BD10B5054B03600446F8
:1051C000FFF7E2FF04F53070FFF788FF204610BDBF
:1051D00094240E0010B50446FFF7EEFF20464FF46E
:1051E00035710AF047F9204610BDF0B5044689B084
:1051F00000F10D0600F14E07237B1BB9012007F0DB
:105200005FF9F9E7237B022B62D0A06806F048FD26
:10521000A06806F04DFD94F8BD328DF800303A4696
:105220003C23314606A807F01FFB069D6B7833B977
:10523000237B022B03D0012007F042F9F5E7D4F8D5
:10524000C8321BB3002006F0D5FF20B16B7813B92C
:1052500007F01EF8FAE72B78D4F8D0220592591EF1
:105260004B424B418DF80B30D4F8C832CDE903677F
:105270000BB90AF00BF905AB0093D4F8CC5204AB90
:1052800003AA0DF10B0104F53070A847A06806F0E1
:1052900007FD237B022B15D0D4F8C8320025C4F8B3
:1052A000D05233B104F53071032208469847C4E95F
:1052B000B2550023A068237306F0FAFC07A8FFF795
:1052C000BAF899E7A06806F0F3FC07A8FFF7B3F86F
:1052D00009B0F0BD0068FFF788BF13B50B46024662
:1052E000D0E900016C4684E8030093E8030082E8FB
:1052F000030094E8030083E8030002B010BD00003F
:105300002DE9F74306468846142026491746994654
:105310000AF0B2F8044630B10022C0E90022C0E928
:105320000222027442743460002C31D01D491020D6
:105330000AF0A2F8054668B10023836001463846AA
:10534000FFF7CBFFBB68AA68BA60AB60EA68FB688E
:10535000EB60FA602768256037B13846FFF7BEFE7C
:10536000102138460AF086F83068036883B10A9B3A
:105370004A46CDE9000341460B4B043006F068FC79
:1053800030B933681B7C4BB9012006F0D9FCF8E733
:1053900030680023336008B1FFF7A9FE304603B040
:1053A000BDE8F083302F0E00AD500D0030B54368DE
:1053B00087B00446C3B9083006F06AFC0B4B05936E
:1053C00004200B4B02940493FEF765FE054638B1AA
:1053D0004FF4406300930749022302AAFFF790FFAE
:1053E000656002A8FFF77AFE07B030BDD5520D0008
:1053F00095500D0078240E002DE9F043044685B049
:1054000080680C9F98460D46164606F049FC636876
:105410001BB1237B03F0FF0933B1A06806F048FC01
:10542000002005B0BDE8F083A06806F041FC002D27
:105430003DD04122294604F10D000AF078FE84F89F
:105440004D908EB340F26F22314604F14E000AF0C7
:105450006EFE84F8BC9200230293BB6804F530759D
:105460003BB10222394668469847FB680393BB6804
:10547000029329466846FFF730FF029BD4F8C82202
:10548000C4F8C832039B02926846D4F8CC22C4F810
:10549000CC320392FFF722FE0D9BC4F8D0320120DC
:1054A00084F8BD822073BCE784F84E60D3E72846B9
:1054B000B7E7000010B5054B0360037C04461BB939
:1054C000406808B106F08CFF204610BDA4240E00F1
:1054D00010B50446FFF7EEFF2046142109F0CAFF7D
:1054E000204610BD10B5074B0360037C04461BB972
:1054F000406908B106F074FF2046FFF7DBFF204645
:1055000010BD00BFB4240E0010B50446FFF7EAFF3B
:1055100020462C2109F0AEFF204610BD10B5C0E991
:1055200001120022C260012202744361024A029BFE
:105530000260C36110BD00BFB4240E007047704705
:1055400001207047012A08BF01600020704710B594
:105550000821044609F08EFF204610BD10B5102129
:10556000044609F087FF204610BD000010B5054B2A
:10557000044640F81C3B09F07FF9201D09F07CF936
:10558000204610BD38250E0010B50446FFF7EEFF8B
:105590002046582109F06EFF204610BD10B5044B7F
:1055A000044640F8043BFFF7E1FF204610BD00BF72
:1055B00008250E0010B50446FFF7F0FF20466021D5
:1055C00009F058FF204610BD20F00203012B03D044
:1055D000431F5842584170471846704708B1FEF7BC
:1055E0005EBD704708B548B1B0F1005F01D309F066
:1055F00047FFBDE808408000FEF74DBD08BD0B68C1
:1056000003604B68436013B15A6801325A607047B7
:1056100090F9042091F904309A4213DB10DC90F9E0
:10562000052091F905309A420CDB09DC90F906203F
:1056300091F906309A4205DBCCBF0120002070476B
:10564000012070474FF0FF3070470000024A0260AF
:105650004A684260704700BF18250E0091F9042087
:10566000027191F90520427191F90620827191F938
:105670000720C271704738B50C46054600F11C0181
:105680002046FFF7C5FF002809DB05F1240120466D
:10569000FFF7BEFF0028D4BF0020012038BD4FF027
:1056A000FF30FBE738B504460D460430043109F0FD
:1056B0006AF905F1140104F11400FFF7CFFF05F1B9
:1056C0001C0104F11C0009F05EF905F12C0104F144
:1056D0002C00FFF7C3FF95F9383084F8383095F97E
:1056E000393084F8393095F93A3084F83A3095F900
:1056F0003B3084F83B3005F13C0104F13C00FFF7FE
:10570000ADFF95F9483084F8483095F9493084F870
:10571000493095F94A3084F84A3095F94B3084F88D
:105720004B3005F14C0104F14C00FFF797FF95F861
:10573000543084F85430204638BD4A69036862F317
:10574000160303600B695A1C438862F3CA13438033
:10575000CA68C3F3072362F3C703C370704710B569
:1057600004468CB02422002103A80AF03BFC2368E5
:10577000C3F3160308936388C3F3C313013B079372
:10578000E37803A8DB08069306F092FECDE900015A
:1057900003A9684606F07CFE09980CB010BD30B530
:1057A00004468DB024220D4603A800210AF01AFCFD
:1057B0002368E178C3F3160308936388C3F3C31324
:1057C000013B05EBD10503A80793069506F070FE93
:1057D000CDE9000103A9684606F05AFE03A9204658
:1057E000FFF7ABFF0DB030BD0368C1F31602C3F382
:1057F0001603934213D310D84288C1F3C353C2F3A4
:10580000C3129A420BD308D8C378DB08B3EBD16F2D
:1058100005D38CBF012000207047012070474FF056
:10582000FF307047024A026000224260704700BFAA
:1058300018250E0030B5002387B0838083710D4694
:1058400005AB00931349044604AB03AA284606F0AF
:10585000DFFD032807D1039B2371049B6371059B24
:10586000A37107B030BD0C4904AB03AA284606F06B
:10587000CFFD022804D1039B2371049B6371F0E7E1
:10588000064903AA284606F0C3FD012804BF039B6E
:105890002371E6E7BC240E00BF240E00FD220E009B
:1058A00010B5044B0360002304464360FFF7C2FFBA
:1058B000204610BD18250E0038B500257F2304466C
:1058C0000370C0E90155C0E90355C0E905550A490F
:1058D0001C30FFF7E5FF094904F12400FFF7E0FF62
:1058E000C4E90B550649656304F1380009F00FF867
:1058F000A564204638BD00BFC5240E00CE240E008E
:105900001F290E0090F9043090F9052090F9061037
:10591000002BB8BF0848C2EB02124FEA8202BDBF9B
:1059200000FB0320401840424FF46160A4BF00FB1D
:1059300003235818704700BFF0F1FFFF90F90730BC
:1059400043B990F904308B6090F905304B6090F9C1
:1059500006300B60704790F9073030B5B3B990F955
:1059600004508C682C44D1E900328C6090F90540D9
:10597000002DB5BF121B12194A604A60B5BF90F9DD
:10598000062090F906209B1A9B180B6030BD38B595
:1059900044680546AB68A34207D02046FFF724FFC2
:1059A00004340028F6D1012038BD0020FCE738B5CA
:1059B000046905466B69A34207D02046FFF714FF30
:1059C00004340028F6D1012038BD0020FCE773B56F
:1059D00005460E46FFF7EBFF90B901A80191FFF7CE
:1059E000BEFE2B78314643FA00F42846FFF7CFFF7E
:1059F00004F00104002C08BF0446204602B070BD2C
:105A00000024FAE72DE9F84300244568804626463D
:105A10002746D8F808309D421ED067F3160966F372
:105A2000DA5964F3DF69B9F1000F09D12F686E8884
:105A3000EC78C7F31607C6F3C316E4080435E8E7A5
:105A400067F3160166F3DA5164F3DF612846FFF766
:105A5000CBFE0028EADCF1E7002067F3160066F3CE
:105A6000DA5064F3DF60BDE8F8830000054A08B54A
:105A700002600022034642600830FFF7D3FE18465A
:105A800008BD00BF28250E00002343608381837377
:105A90007047000030B5044687B00D4611B10B7851
:105AA0004D2B03D02046FFF7EFFF1BE005AB009323
:105AB0000F4904AB03AA284606F0AAFC0328F1D13B
:105AC000039B2371049B6371059BA3712F212846BF
:105AD0000AF0CDFA40B1411C04F10800FFF7AAFE1C
:105AE0000123E37107B030BDA081A073F8E700BFC8
:105AF000D7240E00104B114910B5044640F8043B62
:105B000008F005FF04F11400FFF78CFE0B4904F1C7
:105B10001C0008F0FCFE04F12C00FFF783FE04F1EA
:105B20003400FFF7A3FF04F14400FFF79FFF0023B9
:105B300084F85430204610BD38250E001F290E0071
:105B40002DE9F74F044608460AF0BAFA0025064642
:105B5000019004F134083F49019801AA0BF06AF959
:105B60000146002862D0012D05F1010353D0022D1A
:105B700056D0002D46D1024692F80090B9F1400F60
:105B80001546174602F10102F6D800222A7004F1E8
:105B90001C0008F01AFF012285F8009084F85420B8
:105BA0002A786AB397F800A00AF1FF323F2AB94673
:105BB000BB4607F10107F5D9002304F12C0789F84A
:105BC000003029463846FFF735FE89F800A0BAF1C3
:105BD000000F15D05D461BF801ABBAF1400FF9D8A4
:105BE00000222A704946201D08F0EFFE85F800A02B
:105BF00004F11400BAF1000F06D02946FFF71AFE8F
:105C00000125A8E71D46A6E73946FFF727FD237EB5
:105C1000013B2376F4E74046FFF73CFF02259AE775
:105C200004F14400FFF736FF032594E794F93B3075
:105C300043B194F94B202AB904F13400FFF724FF53
:105C400084F85420304606F0CBFB94F8540003B09F
:105C5000BDE8F08FE1240E0038B5134B04460D4625
:105C600040F8043B114908F052FE04F11400FFF71C
:105C7000D9FD0E4904F11C0008F049FE04F12C0086
:105C8000FFF7D0FD04F13400FFF7F0FE04F144000B
:105C9000FFF7ECFE002384F8543029462046FFF736
:105CA0004FFF204638BD00BF38250E001F290E00CB
:105CB00008B50346FFF7B6FD8A681A714A685A713B
:105CC0000A689A71184608BD13B5074B0360002394
:105CD000044643606846FFF7EBFF69462046FFF73E
:105CE000BDFC204602B010BD18250E0091F907300A
:105CF00043B991F90430836091F90530436091F91B
:105D000006300360704707B50023014601A80193E0
:105D1000FFF713FD019803B05DF804FB194B70B554
:105D200004460D4640F8043B043108F03BFE05F103
:105D3000140104F11400FFF789FC05F11C0104F1C2
:105D40001C0008F02FFE05F12C0104F12C00FFF7D8
:105D50007DFC0D4EAB6BA36305F13C01666304F162
:105D60003C00FFF773FCAB6CA364666405F14C0167
:105D700004F14C00FFF76AFC95F8543084F8543075
:105D8000204670BD38250E0028250E00F8B50C46BB
:105D900051F8043B074640F8043BFFF7BFFFD4E946
:105DA000182304F16806C7E918230FCE07F1680528
:105DB0000FC50FCE0FC533682B60D4E9242304F13F
:105DC0009806C7E924230FCE07F198050FC50FCE1B
:105DD0000FC533682B60D4E93023C834C7E93023BA
:105DE0000FCC07F1C8050FC50FCC0FC523682B607A
:105DF0003846F8BD10B50446383008F03DFD20693E
:105E0000FFF7ECFB6068FFF7E9FB204610BD0000E0
:105E100038B5094D2B6863B96020FEF73CF904469C
:105E200030B1064B40F8043BFFF764FE6423E365A2
:105E30002C60286838BD00BF94E4032008250E00BC
:105E400006F036BB01390B2915D8DFE801F016083A
:105E5000160616061616061606161E207047830727
:105E60000DD1642290FBF2F302FB130000280CBF5B
:105E70001C201D207047002070471F2070471C20E9
:105E80007047F8B50123CB6090F90430013B0B61FA
:105E90000023C1E9003306460C4617468B602046B6
:105EA000FFF7CEFF96F90630A2699A4203D0E36865
:105EB0000133E360F3E796F90550012D13D0E36851
:105EC0006069013DC5EBC5051D44E56096F9041008
:105ED00000F26C70FFF7B6FF8542C4BF073DE56076
:105EE0002046FFF7ADFF214606F10800FFF726FD2B
:105EF0003846FFF730FD2046BDE8F84006F0D8BA36
:105F0000F0B590F8583085B004462BB9FFF780FF04
:105F1000011D201DFFF7C6FB94F93F30002B69D00F
:105F2000D4E9182304F1980739463E4602A8CDE982
:105F3000022306F0ADFA0FCE04F1C8050FC50FCE4F
:105F40000FC533682B6004F1300102A8FFF77EFB18
:105F500002AA394604F13800FFF793FFC4E924018F
:105F600004F1180102A8FFF771FB02AA04F1C801AD
:105F700004F14800FFF785FFD4E924670B46864209
:105F8000024677EB0301C4E93023D4E9180124DA8F
:105F9000B04271EB070519DA002323602068FFF790
:105FA00013FB04F16801D4E91867019120BB04F1E7
:105FB0003000FFF7A7FC361A67EBE077019902A8DB
:105FC000CDE9026706F064FA05B0F0BD904271EBCE
:105FD0000303B4BF01230223DFE7904271EB030305
:105FE00001DA0323D9E7B04271EB0703B4BF0423FE
:105FF0000523D2E70623D0E704F11800D9E72DE9FD
:10600000704304460E460FCCDCB001AD0FC50FCC7B
:106010000FC523682B6001A806F04AFA044606F172
:106020002C000D46FFF76EFC96F93B3014EB000890
:1060300045EBE0791BB3062321A82093FFF75AFD17
:1060400031460AA8FFF76AFE0AA921A8FFF72AFB32
:1060500020A8CDE93889FFF753FF0AA8FFF786FA91
:106060002098FFF7B1FA38B106F11400FFF74AFCA7
:1060700014EB000845EBE07921A8FFF777FA4046DA
:1060800049465CB0BDE8708330B591F9073097B0F0
:106090000446C3B900F168056846FFF7D7FA6946B8
:1060A0002846FFF723FE211D6846FFF737FE6946A5
:1060B0002846FFF7A4FFC4E918016846FFF756FA1F
:1060C0002046FFF71DFF17B030BD000030B5D0E906
:1060D00018320B4D5B194FF0000585B045EB0202FD
:1060E000C0E9183204460191FFF70AFF019902A89E
:1060F000FFF7ACFA02A92046FFF7C6FF05B030BD96
:10610000805101002DE9F0418AB0174606460D4640
:106110002422002101A81C4609F064FF062F29D87B
:1061200029463046FFF78EFE002C804624DDA6F27D
:106130006C76013D06960595012301A80493FFF7AF
:106140007FFE079A049BBA4201D00133F5E7002194
:106150000122944206D101B10493049C20460AB066
:10616000BDE8F0810733434504DC0132062A4FF0D5
:106170000101EED10024F1E7F0D0013DCDE90405A5
:10618000A6F26C76069601A8FFF75AFE079B0499C3
:10619000BB4202D001390491F5E70020012264429C
:1061A000944203DC0028D8D00491D6E707390029AF
:1061B000E0DD0132062A4FF00100F1D1DAE70000FC
:1061C0002DE9F046CDB0044610A80D46FFF7DEFDE0
:1061D000002320460293FFF715FC58BB2AA8FFF7BF
:1061E00092FD0290FFF714FEC16D02A8FFF7D7FAE7
:1061F000DFF80CA22AA8FFF786FD02990390064655
:1062000003A8FFF7F1FA002800F3F2803146204698
:10621000FFF7DDFB0746002800F09480A36C013BEC
:10622000042B00F28F80DFE813F0070007009600D0
:10623000B800D5000290DBE72AA907A8FFF738FDD0
:1062400007A92046FFF717FA00280DDA04F11C0110
:1062500007A8FFF7FBF907A910A8FFF715FFDDE96D
:106260002823C5E9182394E06CD1A36C012B25D019
:10627000022B67D104F11C0104A8FFF7E7F904F130
:106280002409494604A8FFF7C3F900285ADC04A9E9
:1062900007A8FFF7DBF907A910A8FFF7F5FED5E976
:1062A0001801DDE92823904271EB030341DB9DF8DF
:1062B0001430E26A13448DF81430E2E7E26A94F98C
:1062C000213093FBF2F63C21514302FB1636DDE907
:1062D0002823521843EBE17310A8CDE92823FFF7D8
:1062E0000FFEDDE9282307A904A8CDE9042306F061
:1062F000CFF82B9BE16A9B1B93FBF1F201FB12335E
:10630000089A07A8D21A94F922300892079306F047
:10631000CFF8CDE9280110A8FFF7F2FD2AA904A8BB
:10632000FFF7D2FC04F1240104A8FFF771F900285B
:1063300008DA2AA8FFF7E7FC01462046FFF747FBEB
:1063400000288CD1514607A8FFF7AAFA07A910A880
:10635000FFF7BCFE4EE72E992F98D4E90B3201319E
:1063600000F26C70FFF7CEFE2D9B9842EAD104F14B
:106370001C0107A8FFF76AF907A910A8FFF784FE18
:10638000DDE92801D5E9182382428B41DADAC5E933
:1063900018012846FFF7B4FD2BE0E66A002E08DA64
:1063A0002E992F98013100F26C70FFF74BFD3044AD
:1063B000461C2AA8FFF7A7FCB6EBD06FC2D12AA9CA
:1063C00007A8FFF775FC07A92046FFF754F9002836
:1063D000B8DCCCE72AA907A8FFF76AFC04F11C0186
:1063E00007A80191FFF714F900280199AADCC0E77A
:1063F000002711A8FFF7BAF838464DB0BDE8F0867F
:10640000C5240E0037B58D6804466846FFF7F7F8D7
:106410006A462946204606F085FF01A8FEF70BF8DC
:10642000204603B030BD37B5CD6804466846FFF757
:10643000E6F86A462946204606F050FF01A8FDF717
:10644000FAFF204603B030BD37B50D6904466846F3
:10645000FFF7D5F86A462946204606F08CFD01A8CC
:10646000FDF7E9FF204603B030BD70B5D1E9003635
:10647000F61A0023C0E9003304468360B0100D46CD
:10648000FFF7B0F8D5E90053C4E900000644A66060
:106490002A460146934205D009B116680E600431C0
:1064A0000432F7E75B1B18446060204670BD38B5C6
:1064B0000D4611F8043B044600F8043BFFF7D5FFF6
:1064C00005F1100104F11000FFF7CFFF204638BDA1
:1064D00038B504460D46FFF7EAFF05F11C0104F14B
:1064E0001C00FFF7B3F805F1240104F12400FFF7C5
:1064F000ADF8EB6AE3622B6B23636B6B636305F1AF
:10650000380104F1380008F04DFAAB6CA364204662
:1065100038BD2DE9F043D0F82080D1B081460C463B
:10652000154600260027D9F82430434529D0414696
:1065300001A8FFF7CDFFAB680BB908F0A7FFEB6828
:1065400001A928469847B0B1214614A8FFF71EFCC0
:1065500014A901A8FFF734FEDDE92C2310B156EA97
:10656000070103D0B24273EB070101DA16461F465A
:1065700015A8FEF7FBFF01A8FFF73CFC08F14C084B
:10658000D1E756EA070308D02046C4E91867FFF7A9
:10659000B7FC012051B0BDE8F0830020FAE700000D
:1065A0001FB5084B03936A46074B0293FFF7B1FFF1
:1065B000029B04461BB169460322084698472046C1
:1065C00004B010BD41550D0045550D002DE9F047B3
:1065D0000668BCB007468A46002400257B689E42B8
:1065E0001CD0337CC3B151466846FFF7CFFB6946E8
:1065F0003046FFF7D5FF40B154EA0503DDE91889BD
:1066000005D0A04579EB050301DBA046A94601A80A
:10661000FEF7ACFF44464D463036DFE720462946BC
:106620003CB0BDE8F0872DE9F0470668BCB00746EE
:106630008A46002400257B689E421DD033699B0753
:1066400018D551466846FFF7A1FB69463046FFF76B
:10665000A7FF40B154EA0503DDE9188905D0A0453C
:1066600079EB050301DBA046A94601A8FEF77EFFF2
:1066700044464D463036DEE7204629463CB0BDE86C
:10668000F08700002DE9F04FDFF85CB00668BDB080
:1066900007468A46002400257B689E421FD0594643
:1066A000304608F00FFAC0B151466846FFF76EFB5E
:1066B00069463046FFF774FF40B154EA0503DDE94F
:1066C000188905D0A04579EB050301DBA046A94652
:1066D00001A8FEF74BFF44464D463036DCE7204626
:1066E00029463DB0BDE8F08F9F250E0081422DE97F
:1066F000F04104460E4622D0D1E900580068A36854
:106700001B1AA8EB05079B10B3EBA70F4FEAA701D5
:1067100018D20846FEF766FF06460346A84505D090
:106720000BB12A681A6004330435F7E72068FEF7D6
:1067300055FF26603E44A66023681F4467602046DC
:10674000BDE8F0816268121AB1EBA20F06D8A84525
:10675000F2D03A46294609F02BFCEDE712B1294662
:1067600009F026FCD4E90032D11A33680B44716871
:106770009942E1D00AB11868106004330432F7E797
:1067800038B50D4611F8043B044600F8043BFFF70A
:10679000ADFF05F1100104F11000FFF7A7FF05F1AF
:1067A0001C0104F11C00FEF759FF05F1240104F15E
:1067B0002400FEF753FF204638BD00002DE9F74FB7
:1067C000D0E900693B4D3C4BA9EB0604A4106C4397
:1067D0009C428A4607461146A84602D1374808F02F
:1067E00052FE012C224638BF0122A418AAEB06054E
:1067F0005DD254B19C4228BF1C464C20604300919E
:10680000FDF749FC0099834600E0A3461BEB050019
:1068100001D0FFF75DFE5B4631468A450AD033B1B1
:10682000184601910093FFF753FEDDE900314C312A
:106830004C33F2E7AD0808FB05FA2AF040454FF06B
:106840004C0A0AFB05FA06EB0A050AF14C0ADA447F
:1068500053462946494513D1A9EB0505AD0808FB68
:1068600005F525F040454FF04C0808FB05A5B0465E
:10687000C8450FD04046FFF7BDFA08F14C08F7E7CE
:10688000184601910093FFF723FE0199009B4C31BC
:106890004C33DFE716B13046FDF701FC4C2000FB1E
:1068A00004B4C7E900B5BC6003B0BDE8F08F1C4676
:1068B000A3E700BF1BCA6B286B28AF01E3240E00BF
:1068C00038B5D0E90135AB4204460A4607D013B1CA
:1068D0001846FFF7FDFD63684C33636038BD194609
:1068E000FFF76CFFFAE730B597B0044603A80192B2
:1068F0000D46FEF7E1FF01230199159303A80E95BC
:10690000FFF73EFF03A904F12000FFF7D9FF03A81A
:10691000FFF770FA204617B030BD30B597B0044687
:1069200003A801920D46FEF7C7FF022301991593B4
:1069300003A80E95FFF724FF03A904F12000FFF739
:10694000BFFF03A8FFF756FA204617B030BD00007E
:106950002DE9F047D1E900371B4DFF1ABC10002389
:106960006C43C0E9003306468846836008D0174B65
:106970009C4201D908F084FD3846FDF78CFB0446A3
:106980002744B760D8E900A7C6E90044D046A1462D
:1069900047450BD0B9F1000F03D041464846FFF7F9
:1069A00097FD09F14C0908F14C08F1E7A7EB0A073C
:1069B000BF087D4325F040454C2000FB0544746032
:1069C0003046BDE8F08700BF1BCA6B286B28AF01BB
:1069D0002DE9F041074688461646154604464445CB
:1069E00013D07DB12146284607F0DCFF23692B61D7
:1069F000D4E9062304F12001C5E9062305F12000AE
:106A0000FFF7A6FF30343035E9E7E01B04090448FE
:106A1000444324F07044302000FB0460BDE8F08162
:106A2000ABAAAA0A2DE9F74FD0E90068A8EB060443
:106A30002311334C5C43334B9C4205460F4693462F
:106A400002D1314808F01FFD012C224638BF012237
:106A5000A418A1EB060A50D244B19C4228BF1C46A0
:106A600030206043FDF717FB814600E0A14619EB9B
:106A70000A0A11D05946504607F094FFDBF810304F
:106A8000CAF81030DBE906230BF12001CAE906231E
:106A90000AF12000FFF75CFF39464A463046FFF70F
:106AA00097FF414600F130023846FFF791FF374625
:106AB0008346474514D0D7E908A35345019306D030
:106AC0005046FFF797F90AF14C0A019BF5E7386A3F
:106AD00008B1FDF7E4FA384607F0CEFE3037E8E7B4
:106AE00016B13046FDF7DBFA302000FB0494C5E90F
:106AF000009BAC6003B0BDE8F08F1C46B0E700BF60
:106B0000ABAAAAAAAAAAAA02E3240E00F0B50568B5
:106B10008DB004460E4663689D422F4609D0284634
:106B2000314607F0CFFF30350028F4D038460DB09D
:106B3000F0BD2249684607F0EAFE0020002100234C
:106B4000CDE9060131466846CDE9083304930A933E
:106B500007F03BFFD4E901539D4220D075B169464F
:106B6000284607F01FFF049B2B61DDE9062308A9D7
:106B7000C5E9062305F12000FFF7EAFE636830331C
:106B8000636020463146FFF7C1FFDDE9084507464F
:106B9000A5420AD02046FFF72DF94C34F8E76A46A3
:106BA00029462046FFF73EFFEBE7089808B1FDF7BE
:106BB00076FA684607F060FEB8E700BF1F290E00AE
:106BC00003680A7883F8B120012183F8B010704778
:106BD000022A06D0032A02D0012A00D10160002037
:106BE00070470B680360FAE7012A034602D101608F
:106BF00000207047022A04BFD1E90001C3E9000167
:106C0000F6E710B442680346541001EB6200D20765
:106C100048BF0A591B685DF8044B48BFD358184752
:106C2000D0F8C83001461BB1D0F8CC30C03018477E
:106C300070470000F8B5124D0846002A18BF1546E7
:106C40000F461E4609F059FA402817D8284609F081
:106C500054FA40F26E23984210D84330FDF71DFAE3
:106C6000044648B1394600F8016B09F021FA29467B
:106C700004F1420009F01CFA2046F8BD0024FBE7AD
:106C80001F290E00F0B59FB00A4600230E46011DD5
:106C900008A800F0F9FD089800210AF06DF90546F2
:106CA00008A807F0E9FD002D60D008A928460AF0E1
:106CB00051F90C9B2E492F483246FDF7F3FC002278
:106CC000114628460AF04EF9082206A928460AF07D
:106CD00067F90C9F4A2F39DD274B069A9A4235D126
:106CE000264B079A9A4231D1A7F108021046059225
:106CF000FDF7D3F90446C0B127440146059A28465A
:106D00000AF04EF917F8093CABB9631C1846059315
:106D100009F0F3F93F28059B0DD804F142020092D7
:106D2000174914483246FDF7BDFC28460AF00AF917
:106D300020461FB0F0BD13490E483246FDF7B2FCA5
:106D40004321204608F096FB0024EEE7BDF81E30F4
:106D500002939DF81D3001939DF81C3000930A4961
:106D6000069B04483246FDF79DFCEDE72C46DFE725
:106D700040250E0098E403206376B63101084100F7
:106D800054250E0076250E00A4250E002DE9F843AB
:106D90008046284B48F8043B0446404600F08CFCF3
:106DA000022264230025C4E91B230823E367C4E906
:106DB0002055C4E92255C4E92455C4E92655A567E0
:106DC0002020FDF768F9E66FA067013E760800EB2A
:106DD000860907464FF40070FDF75DF900F5007372
:106DE000C4E92503C4F888304FF4FA614FF47A738C
:106DF000C4E92D1347F2305347F82600C4F8840045
:106E0000C4F88000C4F89000C4E92855C4E92A55A4
:106E10000949C4F88C90C4F89C90C4F8B050C4F8E8
:106E2000BC30C4F8C850404600F08CFC2046BDE899
:106E3000F88300BFB4270E00E9250E0038B5064CD4
:106E400023683BB9D020FDF726F9054608B1FFF7C6
:106E50009DFF2560206838BD9CE4032010B5D1E972
:106E6000002386B00021044604910AB9D90705D54C
:106E7000CDE902230F4B05930F4B049302AB93E82C
:106E800003006A4682E8030094E8030083E80300F5
:106E900092E80300049A84E80300A168A260059ABE
:106EA00004911846E168E2600591FEF717F9204663
:106EB00006B010BD036C0D00E96B0D0010B5036842
:106EC0000446586F04F014FF204610BD10B5026947
:106ED0008368043A9342044602D00433A36010BD91
:106EE000C068FDF7DCF863691A1D62615B68E360E6
:106EF00003F500722261F1E72DE9F04F87B00446F7
:106F00000190406FDFF8A890DFF8A8A004F0E8FE39
:106F1000DFF8A4B0D4F88030D4F89020934205D1A3
:106F200001A8FFF7CBFF07B0BDE8F08F04F17800B0
:106F300004F104081F68FFF7C9FF404600F098FEFF
:106F4000002302464146064602A800F09DFC029836
:106F500040F202210AF010F8054602A807F08CFC66
:106F6000CDB108220DEB02012846CDE9029A0AF0C4
:106F700029F807F1420009F0C0F8394600F1430250
:106F800028460AF01FF8284609F0DCFF0748324679
:106F90005946FDF787FB3146404600F0A9FE002F19
:106FA000B8D04321384608F065FAB1E798E40320E9
:106FB0006376B63101084100F7250E00002908BFAD
:106FC000B0F5006F38B505D0002908BF40280BD1B7
:106FD000092A09D105490648FDF764FBFFF72EFF92
:106FE000BDE83840FFF788BF38BD00BF14260E004B
:106FF00098E4032070B586B0044605F059F948B905
:10700000434B02A9CDE9023004F1C000FFF726FF8F
:1070100006B070BD94F8B2501DB1012384F8B330AE
:10702000F6E704F09DFED4F8A830C01AD4F8AC30CE
:107030009842EDD3261D2946304600F025FE014634
:10704000C4F8A400002852D02046FFF71BFE0546D6
:10705000C4F8A000002835D004F082FE02AE00255E
:107060002C4BC4F8A800314604F1C00002930395EC
:10707000FFF7F4FED4E9283003F1420200922649DA
:10708000264AA4F8B050A84208BF0A460133244952
:10709000244884F8B350FDF705FBFEF763F8D4F8F5
:1070A000A020214B0593CDE9006511461F4B0294AA
:1070B000049311F8013B4232FEF79EF93046FEF789
:1070C0000DF8A5E7D4F8A42019491648FDF79CF956
:1070D0000121304600F0D8FDD4F8A4102A463046ED
:1070E00000F00EFCD4F8A030002BB5D190E7D4F816
:1070F0008030D4F890209A4207D01B68C4F8A030A2
:1071000004F17800FFF7E2FEECE7C4F8A0007FE7A7
:1071100095710D00ED740D0043260E00E4210E0064
:1071200064260E0098E40320C16B0D00D16B0D00A6
:1071300047260E00C368CA689B1A9B105A1ED0E9E6
:1071400000301B1A9B1003EBC21388680A68801A70
:1071500003EBA000704737B505460190406F04F07F
:10716000BFFD05F1800105F19000FFF7E3FF044644
:1071700050B9281D00F0D6FDD5F8A03004461BB14B
:10718000D5F8A43003B9013401A8FFF797FE2046D3
:1071900003B030BD13B5044605F08AF890B104F091
:1071A000DFFDD4F8B430C4F8AC300D4BC4F8A800FF
:1071B00000936946002304F1C0000193FFF74EFEDF
:1071C00002B010BD94F8B2301BB1012384F8B33083
:1071D000F6E72046FFF7BFFF0028F6D0F0E700BF34
:1071E000F56F0D002DE9F34104460190406F04F066
:1071F00077FD04F1800104F19000FFF79BFFE36E3F
:10720000834202D22046FFF777FEDFF84880104F16
:10721000261D304600F086FD236F984205DC01A84C
:10722000FFF74CFE02B0BDE8F0810121304600F0CE
:107230002BFD05460028ECD001460022304600F028
:107240005FFB2A4641463846FDF7DEF8E1E700BF1E
:1072500098E4032083260E0013B50446002004F0B2
:10726000D9FF012805D012491248FDF732FA02B0C1
:1072700010BD04F1740004F023FD0F4A0023002127
:107280004FF4046004F0A6FFFDF76CFFFEF78EF8E4
:10729000201D00F075FC2046FFF7A4FF074B00936C
:1072A0006946002304F1C0000193FFF7D7FDDEE734
:1072B00096260E0098E40320BD6F0D0095710D0019
:1072C00070B50368044663B1436A45691E1DAE424A
:1072D00004D955F8040BFCF7E2FEF8E72068FCF748
:1072E000DEFE204670BD2DE9F04706468946406A1D
:1072F00071697368471A09EBA7050135B3EB450FB0
:10730000144627D95D1B6D083268AD000CB14FEAF9
:1073100089042C441444031DA142A3EB010213D998
:10732000994202D0204608F043FE74612368F3605E
:1073300003F500733361E3197362E359F36103F5F5
:1073400000733362BDE8F0879942EED0381D801A91
:107350002044E8E703F102084B452CBF9844C84499
:10736000B8F1005F01D308F08BF84FEA8800FCF712
:1073700092FEA8EB05056D088246AD000CB14FEA00
:107380008904726A716904322C449142544403D0D6
:10739000521A204608F00CFE3068FCF780FEC6E961
:1073A00000A8C2E72DE9F04186B004469DF83050B0
:1073B0009DF834302B430F461646FFF73BFC05463D
:1073C000002842D0434B44494448002E18BF33465E
:1073D0003A46FDF767F9606F059404F081FCD4F834
:1073E0009820D4F89030043A934204F1780804F1DC
:1073F000900604F180072BD003B11D60D4F89030C3
:107400000433251DC4F89030284600F08BFC394623
:1074100003903046FFF78EFE029004F049FFDDE94D
:10742000023200902E492D48FDF73CF9284600F025
:1074300079FC00283ED02046FFF75EFD2046FFF78E
:10744000D1FE05A8FFF73AFD012006B0BDE8F081A6
:1074500039463046FFF76EFE6FF06043984202D126
:10746000204808F010F8D4F89C30A26F9A1AE36F05
:10747000A3EBA203012B04D8002201214046FFF711
:1074800032FF4FF40070D4F89C80FCF704FEC8F87B
:107490000400D4F8903003B11D60D4F89C301A1D5C
:1074A000C4F89C205B68C4F8943003F50072C4F8FB
:1074B0009820A6E739463046FFF73CFEE36E83424C
:1074C000B9D304F0F5FE0028B5D007490348FDF70D
:1074D000E9F8B3E71F290E00B9260E0098E403204F
:1074E00011270E00E1260E003D270E0073B590F81F
:1074F000B0300446002B41D090F8B130D0F8A42031
:10750000002B3DD052495348FDF7CCF8D4F8A430B5
:10751000D3B1261D0021304600F0B6FBD4F8A430CC
:10752000984205460DD10121304600F0ADFB002206
:107530002946304600F0E4F9474946482A46FDF717
:10754000B1F80023C4F8A430D4F8A00010B143214E
:1075500007F090FF0023C4F8A030D4F8B830C4F886
:10756000AC303E4B00936946002304F1C000019308
:10757000FFF774FC04F0F4FBC4F8A80002B070BD7F
:1075800037493448FDF78EF8D4F8BC30C4F8AC3035
:10759000D4F8A4304BB1D4F8A00010B1432107F0C7
:1075A00069FF0023C4F8A030DBE7606F009404F0AB
:1075B00097FBD4E92032934213D0D4F8A02043F8AB
:1075C000042CD4F88030043BC4F880306846FFF7C0
:1075D00075FC24491F48FDF765F82046FFF78CFC31
:1075E000BFE704F1800104F19000FFF7A3FD6FF005
:1075F0006043984204F1780502D11B4807F043FF2D
:10760000D4F88C20A36F9A4204D101221146284657
:10761000FFF769FE4FF40070D4F88C50FCF73BFD87
:1076200045F8040CD4F88C301A1FC4F88C2053F899
:10763000043CC4F8843003F50072C4F8882003F5D4
:10764000FE72C4F88020D4F8A020C3F8FC21BDE766
:1076500050270E0098E4032063270E00F56F0D00FD
:1076600073270E0085270E00E1260E00014B024A0B
:107670001A60704798E40320D4210E0010B5074B20
:10768000044640F8C03BFDF729FD04F17800FFF700
:1076900017FE201D00F0B2F9204610BDB4270E00E1
:1076A00010B50446FFF7EAFF2046D02107F0E2FEBE
:1076B000204610BD01207047F8B51F4D1F4B0446F2
:1076C000294640F8043B07F022F91D4904F1140053
:1076D00007F01DF9294604F1240007F018F90023EA
:1076E000C4E90E33C4E91233C4E91433C4E91633D0
:1076F000C4E9183384F834302364082363642020F9
:10770000FCF7C9FC656C2064013D6D0800EB850742
:1077100006464FF40070FCF7BEFC00F50073C4E9A8
:10772000170346F82500E064A064A065676523653B
:1077300067662046F8BD00BF1F290E00B4280E0062
:10774000C0270E007FB5051D0446284607F03DF909
:107750000E49684607F0DBF86946284607F0C4F989
:107760000646684607F088F86EB1E3680022013BE0
:107770002946684607F0CEF96946284607F01DF904
:10778000684607F079F8204604B070BDC5270E00A2
:1077900010B5C36B044613B93C3004F079FAE06BC2
:1077A000BDE8104004F07CBAC06B04F081BA000060
:1077B00010B596B06946044604F0E2FBD0B9019BCF
:1077C0005B04224606D515491548FCF71DFE01202D
:1077D00016B010BD12481349FCF77BFF204609F094
:1077E000E9FB40F2FF11204604F0D2FB80B90E49BC
:1077F0002246E9E704F034FE0368022BF1D004F0DE
:107800002FFE0A4902680648FCF763FF0020DFE705
:1078100004F026FE06490268F5E700BFD2270E00F5
:10782000A0E40320EF270E0020280E000C280E00F5
:107830002F280E0038B51546044607F068F84DB1FC
:107840002B783BB10449204607F0E8F8294620464A
:1078500007F0E4F8204638BDA42E0E007FB505469B
:107860000E461C464969684607F074F9009904B948
:10787000746A22462846FFF7DDFF684606F0FCFFE3
:10788000284604B070BD000070B50C468EB01A4991
:10789000CDE90032054607F03AF8E069E1680144B5
:1078A0000431284607F006F8211D06A807F07AF8EB
:1078B000124902A807F02BF802A906A807F0BFF8A2
:1078C000DDE90032064621460AA8FFF7C7FF0AA9EC
:1078D000304607F0B4F80146284607F054F80AA8E5
:1078E00006F0CAFF02A806F0C7FF06A806F0C4FF0C
:1078F00028460EB070BD00BF1F290E00C5270E0020
:107900002DE9F04713468EB005460F46002A4AD0AF
:10791000406804F055FB0646002841D0DFF8B0A0CF
:10792000DFF8A490DFF8A480304604F051FB002873
:1079300033D0827A082AF7D100F10B04696901AAD1
:10794000204604F065FD0128EED1019B9F42EBD15A
:10795000291D06A807F026F851460AA806F0D7FF09
:107960000AA906A807F06BF8214607F074F801464B
:1079700002A807F017F80AA806F07EFF06A806F08E
:107980007BFF029809F016FB4046029A4946FCF735
:1079900089FE02A806F070FFC6E7304604F020FB1F
:1079A0000EB0BDE8F0870A4601460AA8FFF76CFF53
:1079B0000A9809F0FFFA0A9A03490448FCF772FE94
:1079C0000AA806F059FFEBE7C7270E00A0E4032042
:1079D000C5270E0070B50368044663B1436A456964
:1079E0001E1DAE4204D955F8040BFCF758FBF8E70E
:1079F0002068FCF754FB204670BD000010B5094B11
:107A0000044640F8403BFFF7E5FF04F1240006F090
:107A100033FF04F1140006F02FFF201D06F02CFFA9
:107A2000204610BDB4280E0010B50446FFF7E6FF4F
:107A30002046682107F01EFD204610BDC368CA68B5
:107A40009B1A9B105A1ED0E900301B1A9B1003EBA7
:107A5000C21388680A68801A03EBA0007047000010
:107A60002DE9F0470446884600F108011830FFF779
:107A7000E5FF6FF06043984202D1374807F003FDFD
:107A8000626A20686368111AA3EBA101012921D859
:107A90006169571ABE10B51CB3EB450F36D95D1B93
:107AA0006D0800EB8505131DA942A3EB010227D940
:107AB000994202D0284608F07BFA65612B68E360A2
:107AC00003F500732361EB196362EB59E36103F57E
:107AD000007323624FF40070656AFCF7DCFA68609B
:107AE000A36913B1D8F800201A60636A1A1D626294
:107AF0005B68E36103F500722262A361BDE8F08771
:107B00009942DAD0381D801A2844D4E703F10209DB
:107B1000012B2CBF994409F10109B9F1005F01D390
:107B200007F0AEFC4FEA8900FCF7B5FA626A6169BA
:107B3000A9EB050504326D089142824600EB8505EC
:107B400003D0521A284608F033FA2068FCF7A7FA47
:107B5000C4E900A9B1E700BFE1260E0038B5056A07
:107B60008269043DAA42034606D00AB10968116041
:107B70009A6904329A6138BDFFF772FFFBE7000093
:107B80002DE9F047C368012B86B0044608D8344974
:107B90003448FCF79EFD0026304606B0BDE8F0876D
:107BA0004068FFF705FE06460028F4D06369626866
:107BB0002D492C48FCF776FD606804F001FA074671
:107BC0000028E8D00023DFF8A490DFF89880A363B2
:107BD000384604F0FDF90546002839D0837A082B91
:107BE000F6D10B35616901AA284604F011FC012881
:107BF000EED1E36A7BB1294602A806F088FE04F1C3
:107C0000240102A806F070FF824602A806F034FEA6
:107C1000BAF1000FDCD0236829469B6820469847BC
:107C20000028D5D0019AA36B9342B8BFA2632B461C
:107C300049464046FCF736FD2046FFF7A9FD04F112
:107C4000400001A9FFF78AFF2046FFF7ADFDBFE71F
:107C5000384604F0C5F9012384F834309CE700BFAE
:107C600045280E00A0E403205A280E0076280E00B6
:107C700010B590F8343004460BB9FFF781FFA06BC4
:107C80000130A06310BD000070B590F83430044698
:107C90000E460BB9FFF774FF2046FFF779FDA36C82
:107CA000A26D93421ED01D682EB1226D043A9342FC
:107CB0000CD00433A3642046FFF776FD25B10A49B2
:107CC0000A482A46FCF7EEFC284670BDE06CFCF73B
:107CD000E6F9636D1A1D62655B68E36403F5007283
:107CE0002265E7E70025E6E78C280E00A0E40320E4
:107CF00013B590F83430019104460BB9FFF740FFFB
:107D0000019BA26B9A42B8BFA3632046FFF740FDD8
:107D100001A904F14000FFF721FF2046FFF744FDD1
:107D200002B010BD38B50446FFF732FD04F148013A
:107D300004F15800FFF782FE05462046FFF734FDA8
:107D4000284638BD014B024A1A607047A0E4032060
:107D5000DD210E007047704703685B681847012AF1
:107D600008BF016000207047022A06D0032A02D013
:107D7000012A00D10160002070470B680360FAE718
:107D8000022A06D0032A02D0012A00D10160002075
:107D900070470B680360FAE7022A06D0032A02D074
:107DA000012A00D10160002070470B680360FAE7E8
:107DB000012A08BF016000207047022A06D0032A6A
:107DC00002D0012A00D10160002070470B680360D7
:107DD000FAE7022A06D0032A02D0012A00D1016064
:107DE000002070470B680360FAE7022A06D0032AD6
:107DF00002D0012A00D10160002070470B680360A7
:107E0000FAE7022A06D0032A02D0012A00D1016033
:107E1000002070470B680360FAE7012A034602D18D
:107E2000016000207047022A04BFD1E90001C3E9C4
:107E30000001F6E710B5034B03600446FDF752FB63
:107E4000204610BD3C2B0E0010B50446FFF7F2FF94
:107E5000204640F2BC5107F00DFB204610BD10B586
:107E6000C36904461BB103F07BFFA06110BD03682A
:107E7000BDE810409B68184710B5006883680BB9CF
:107E800007F004FBBDE81040C36818470B460168C3
:107E9000184605F0E9BA0B460168184605F0E4BA41
:107EA00010B50446C2688068002108F09BF8A368FA
:107EB00022691A60A368A28A9A80D4E90232DA8021
:107EC00010BD0B2910B51AD9836802691C68944249
:107ED00015D19C88828A944211D1DC888AB294425E
:107EE0000DD8C268914205D200245C54C2680131A9
:107EF0008A42FAD8D0E902320120DA8010BD00208F
:107F0000FCE708B50068036800219B6998470120D9
:107F100008BD08B50068036801219B6998470120E6
:107F200008BD08B506F0F0FF80F00100C0B208BD42
:107F300002680B461846D2F87C1705F095BA10B5C2
:107F40008369044633B131B1236820469B68984762
:107F50000023A36110BD03F003FFA369C01AE36906
:107F60009842F1D2F6E7000030B587B00D46002206
:107F700002A90320029204F00BF968BB029C0CB129
:107F8000236923B9154A00210A2004F0C1F800230F
:107F9000ADF80E300C23ADF80C3001AB0493042384
:107FA000059303AA2369012120469847A0B9BDF88B
:107FB000043007EE903AFBEECC7AF5EEC07AF1EEA3
:107FC00010FA09DD17EE900A07F04EFC41EC100B99
:107FD0000121284605F06CFA07B030BD51BD0D00F7
:107FE00010B442680346541001EB6200D20748BF48
:107FF0000A591B685DF8044B48BFD3581847B0F1C5
:10800000006F08B501D307F03BFABDE80840000156
:10801000FCF741B87047000010B5074B044640F824
:10802000203B06F029FC6068044B236008B103F094
:108030004FFE204610BD00BFB82B0E00982B0E003F
:1080400010B50446FFF7E8FF2046502107F012FA6A
:10805000204610BD70B5104B0360044600F5BA60B1
:1080600006F00AFCD4F8C455D4F8C865AE4204D072
:108070002846FDF733F81035F8E7D4F8C40508B101
:10808000FCF70DF804F10800FFF7D4FE606808B1B2
:1080900003F01EFE204670BD4C2B0E0010B50446AA
:1080A000FFF7D8FF204640F2E45107F0E3F92046FD
:1080B00010BD000010B504460430206010220021DD
:1080C00007F090FF01232375024B636000232372A6
:1080D000204610BD1000030038B50446006928B1E1
:1080E00085680C2107F0C6F92846F8E7204638BD18
:1080F00070B5037D05460E46CBB10368DB6823B13E
:108100009A88042A17D09B68F9E70C49102007F0D9
:10811000B3F9044668B11022002107F063FF084B51
:1081200023600423A3802B692C61C4E9023628460E
:1081300070BD2875FBE7DE60F9E700BF302F0E0049
:1081400010000300F8B5037D05460F461646B3B18F
:108150000368DB68ABB19A880E2A06D09B68F9E702
:108160009B6873B19A880E2AFAD153B11A7BBA422E
:10817000F6D1DA8931888A4201D00A43DA81284669
:10818000F8BD0B49142007F077F9044670B11422AA
:10819000002107F027FF074B23600E23A3802B69E4
:1081A000A36033882773E3812C61E8E72875E6E74D
:1081B000302F0E001000030013B50446084601914D
:1081C00007F09BFF01990246204605F03FFA204642
:1081D00002B010BD13B504460846019107F08DFFAB
:1081E00001990246204602B0BDE8104005F0FAB9F8
:1081F00010B5036804460BB903F062FD2068BDE8C2
:10820000104003F06DBD10B504460430FFF7F0FFD9
:108210002368E1681B692046984718B923682046FF
:108220005B699847606803F063FD012010BD70B57D
:1082300004460430FFF7DCFF206A002108F09CFEB2
:10824000431C054608D1236820465B69984760684F
:1082500003F04EFD012070BDD4E9021208F0A0FE2B
:10826000236801461B69204698470646284608F0C1
:1082700069FE002EE7D0EAE738B504460430FFF780
:10828000B7FF206A4FF4DB7240F2026108F074FE1F
:10829000431C054606D0D4E9021208F093FE284696
:1082A00008F050FE6068BDE8384003F021BD0000D2
:1082B0000B4A70B5002304460D461646D2E900016C
:1082C0008D4208BF844203D106EB4313986970BD09
:1082D0000133042B02F12002F0D10020F7E700BFA8
:1082E000A8E403200B4A70B5002304460D46164649
:1082F000D2E900018D4208BF844203D106EB43134B
:10830000986870BD0133042B02F12002F0D10248BD
:10831000F7E700BFA8E403201F290E0070B504464C
:10832000C06808B1FBF7BBFED4E90056AE4204D0EA
:108330002846FCF7D3FE1035F8E7206808B1FBF7B4
:10834000AEFE204670BD10B50446103006F094FA1B
:10835000204606F091FA204610BD00002DE9F043BA
:10836000A3B00446FFF744FF4FF4007004F030F868
:10837000054600285BD06068002108F0FDFD431C25
:10838000064651D00CA908F0E5FDDDF84090A16942
:10839000494552D20022304608F0E4FD211D04A8D0
:1083A00006F000FB04A908A806F0FCFA264908A874
:1083B00006F051FB0146684606F0F4FA08A806F0FC
:1083C0005BFA04A806F058FA00984FF4DB7240F20A
:1083D000026108F0D1FD0746B8B1A3694B4511D23F
:1083E0004FF400722946304608F0DAFDB0F100087B
:1083F00008DD42462946384608F0E4FDA0694044BD
:10840000A061EAE7384608F09DFD304608F09AFD85
:10841000606808F0CFFD6168009807F00FFE002348
:10842000A361684606F028FA284603F0D9FF2068C1
:1084300003F05EFC23B0BDE8F083606808F0BAFD8D
:1084400000236375F0E700BFC0280E0030B5037D40
:1084500097B0044663B1002505756946406803F08E
:108460008FFD20B9049D002DD4BF00250125657521
:10847000607D17B030BD0B68036013B15A680132DC
:108480005A607047F0B58FB004460D4604F081FD88
:10849000052832D1284604F0B6FF2146A66851F8D7
:1084A000043B049305A8FFF7E6FF04AA314608A899
:1084B00004F063FF05A8FBF7BEFF08A804F074FFF3
:1084C00098B10B9C089B029309A903A8FFF7D3FF5F
:1084D000214602AA04A804F04EFD03A8FBF7ABFF57
:1084E000294604A8FFF7CEFFE4E7284604F06CFF16
:1084F00009A8FBF7A0FF0FB0F0BD204604F049FD2E
:10850000062830D1284604F08AFF214608A8FDF746
:1085100079FF08A804F01EFF08B308A904A8FDF716
:1085200082FF06992846FFF755FE05A8FBF783FF53
:108530000C9C089B029309A903A8FFF79CFF02AAC1
:10854000214604A804F017FD03A8FBF774FF04A854
:108550002946FFF797FF05A8FBF76DFFD9E72846E7
:1085600004F03BFFC4E7204604F013FD04281AD1B1
:108570002146A66851F8043B049305A8FFF77BFF4A
:1085800004AA314608A804F0A9FE05A8FBF753FF8A
:108590000A990191084607F0B0FD01990246284664
:1085A00005F030F8A4E7204604F0F3FC022820464A
:1085B00006D104F017FD0146284604F03DFF9AE776
:1085C00004F0E7FC012803D1284604F0A3FF92E75A
:1085D000204604F069FD57EC106B06F05DFF304655
:1085E00053EC102B394607F0FFFB40B139463046BB
:1085F00007F02CFC0146284604F036FF7BE747ECE9
:10860000106B284604F072FF75E71FB50C46014653
:1086100001A8FFF7D1FD214601A8FFF733FF02A80B
:10862000FBF709FF04B010BD2DE9F04F85B0012A1A
:10863000054688461746039304D80026304605B001
:10864000BDE8F08F467D002EF7D0104603F0C0FE47
:1086500004460028F1D02846FFF7CAFD68680021CB
:1086600008F08AFCB0F1FF3F814626D03A46214609
:1086700008F096FCB0F1000A1DDD04EB0A0313F8C4
:10868000012D0A2A1BD0BAF1010AF8D1564602E0A0
:10869000404604F099FE484608F054FC286803F070
:1086A00027FB204603F09CFE039B002BC6D02846E8
:1086B000FFF754FEC2E70026EDE70026EEE740464E
:1086C00004F0A1FE04EB0A030293A2464FF0020B52
:1086D000029B5345DCD90A21504607F0C8FC4FF0F5
:1086E000000201900270504607F007FD01308344FC
:1086F0005F45CDD341465046FFF787FF019B03F10D
:10870000010AAAEB0401A961E2E7000013B53223D4
:10871000009340F26E2200F5277300F12C0104460D
:10872000FCF7FCFE024B2360204602B010BD00BFE8
:108730003C2B0E002DE9F843834B844E0360044626
:108740000025834B4360856004F2D4580C30FFF75A
:10875000DDFF3146C4F8C855C4F8CC55C4F8D0552F
:10876000404606F0D4F804F5C363C4F8F03520237E
:10877000C4F8F435774BC4F8F835774BC4F8E835CE
:108780004FF001094FF47A7304F5C1673146C4F81C
:108790000436C4F8E455C4F8EC55A4F8FC95C4F8C4
:1087A0000056384606F0B3F86C4BC4F8E835C4F808
:1087B0003856C4F83C56C4F84056C4F84456C4F879
:1087C0004856C4F84C56C4F85056C4F85456C4F829
:1087D000585604F25C60FFF76DFC6149C4F8985686
:1087E000C4F89C56C4F8A056C4F8A456C4F8A856B9
:1087F000C4F8AC56C4F8B056C4F8B456C4F8B85669
:10880000C4F8BC56C4F8C056C4F8C456C4F8C85618
:10881000C4F8CC56C4F8D056C4F8D456C4F8D856C8
:10882000C4F8DC56C4F8E056C4F8E456C4F8E85678
:10883000C4F8EC56C4F8F056C4F8F456C4F8F85628
:10884000C4F8FC56C4F80057C4F80457C4F80857D5
:10885000C4F80C57C4F81057C4F8145704F5E56071
:10886000C4F81857C4F81C57C4F82057C4F8245744
:1088700006F04DF83146C4F83857C4F83C57C4F8F0
:108880004057C4F84457C4F84857C4F84C57C4F884
:10889000505704F2547006F03AF83146A4F8649741
:1088A000C4F8685704F26C7006F031F804F5F2630E
:1088B0004FF0FF304FF0FF31C4F87C57C4F88057B9
:1088C000C4F88457C4F88857C3E9000104F5F3637A
:1088D0006FF07F400021C3E90001224BC4F8A037AC
:1088E00042F21073C4F8A4371F4BC4F8A8371F4BCB
:1088F000C4F8B4371E4BC4F8B0371E4BC4F8E03789
:108900001D4BC4F8E4371D49C4F8AC57C4F8B85738
:10891000C4F8BC57C4F8C057C4F8C457C4F8C85703
:10892000C4F8CC57A4F8D057C4F8D457C4F8D857D3
:10893000C4F8DC57404606F048F81149384606F0BE
:1089400044F82046BDE8F883882B0E001F290E004E
:108950004C2B0E00CEB67CD8B82B0E005C2B0E0034
:10896000C5280E00E0E60B00598F0D00E17F0D00D9
:108970001B7E0D0038E50320D1280E00DB280E00F9
:10898000F3280E0038B5074C236843B94FF4FD6057
:10899000FBF781FB054608B1FFF7CCFE2560206898
:1089A00038BD00BF2CE50320F7B50E460546FFF79E
:1089B000E9FFD0F89C170024224601F4007313430A
:1089C0001ED0FFF7DFFF214900F2E470FBF76AFEDB
:1089D000FFF7D8FF0746304607F08FFB00940346A9
:1089E000D7F8E4173246012003F0BAFBFFF7CAFFBD
:1089F0000094D0F8E417164A0223012003F0B0FBDC
:108A00002846FFF7F5FB68684FF4DB7240F20A2155
:108A100008F0B2FA431C044611D0304607F06DFB53
:108A200031460246204608F0CDFA0A490122204686
:108A300008F0C8FA204608F085FA01236B7528680B
:108A400003B0BDE8F04003F053B900BF06290E00A3
:108A50001D290E001E290E0070B5ADF5227D06AE53
:108A60000C4640F26E2200210546304607F0BAFA65
:108A70000F4A0192002340F26D2201A8CDE90423A0
:108A80008DF80830039604F0CAFCA3680BB906F011
:108A9000FDFCE36801A92046984701A804F09DFC6D
:108AA00031462846FFF780FF0DF5227D70BD00BFDF
:108AB0004C2D0E0038B5044604300D46FFF798FBE8
:108AC000E3686068043BAB4226BFA3685D5900259C
:108AD00003F00EF9284638BD70B5044604300D4643
:108AE0001646FFF785FBE368043BAB4208D3A36857
:108AF0005A59B24204D05E5123682046DB68984739
:108B00006068BDE8704003F0F3B870B5D0E9005676
:108B10000446AE4204D02846FCF7E0FA1035F8E7E8
:108B2000206808B1FBF7BBFA204670BD38B50023BA
:108B300083608B6804460D462BB102229847EB6890
:108B4000E360AB68A360204638BD022A37B504460F
:108B500008D0032A12D0012A01D10B68036000203B
:108B600003B030BD096801911020FBF794FA054667
:108B700010B10199FFF7DAFF2560F0E70468002CD7
:108B8000EDD02046FCF7AAFA1021204606F072FC30
:108B9000E5E738B5002383608B6804460D462BB1AA
:108BA00002229847EB68E360AB68A360204638BDBB
:108BB00038B5002383608B6804460D462BB1022232
:108BC0009847EB68E360AB68A360204638BD38B5D2
:108BD000002383608B6804460D462BB10222984720
:108BE000EB68E360AB68A360204638BD10B58468CD
:108BF0000CB906F04BFCBDE81040C368184770B5CF
:108C000004680D46D4E900011646FFF76BFB0146E8
:108C10002846FFF7DFFAF4E80201FFF749FB324686
:108C2000306029462046FFF7E1FF012070BD38B5CE
:108C3000002383608B6804460D462BB102229847BF
:108C4000EB68E360AB68A360204638BD022A70B5CC
:108C5000044607D0032A14D0012A01D10B6803600F
:108C6000002070BD18200E68FBF715FA054630B1DC
:108C70003146F1E80223E0E80223FFF7D8FF256040
:108C8000EEE70468002CEBD004F10800FCF726FAAC
:108C90001821204606F0EEFBE2E738B5002383609A
:108CA0008B6804460D462BB102229847EB68E360BF
:108CB000AB68A360204638BD70B5D0E900560446C5
:108CC000AE4204D02846FCF709FA1035F8E72068D0
:108CD00008B1FBF7E4F9204670BD73B5046805469A
:108CE0000E466B689C420CD08DF80760A3680BB9E8
:108CF00006F0CCFBE36820460DF1070198471034DD
:108D0000EFE702B070BD002B08BFB2F5006F38B5B9
:108D100005D0002B08BFB2F5802F06D038BD012149
:108D200000F5DF60FFF7D9FFF8E7012380F8D037BF
:108D3000F4E730B585B0154604460391FFF722FEEF
:108D4000039B00952246FFF7DEFF05B030BD2DE9FD
:108D5000F0410568C468064600276FF001083369D2
:108D60009C4212D0236802330AD0AB680BB906F0DC
:108D70008DFBEB6821462846984720B9C4F800804F
:108D800010350834EBE70746FAE73846BDE8F081CE
:108D9000F7B50468064617460D467368A3420DD022
:108DA0000197A3680BB906F071FBE368204601A99F
:108DB0009847002808BF00251034EEE7284603B086
:108DC000F0BD10B582680AB906F060FBBDE810403E
:108DD000C368184707B5826801910AB906F056FBC7
:108DE000C36801A9984703B05DF804FB1FB5D1E93A
:108DF00000230021044602910AB9D90705D5CDE91F
:108E000000230B4B03930B4B029321466846FCF760
:108E100064FA029BA268A360039B02926846E26820
:108E2000E3600392FCF75AF9204604B010BD00BF7E
:108E3000E17F0D001B7E0D0013B5044606F064F8BB
:108E400040B1054B00936946002304F5F56001939A
:108E5000FFF7CCFF02B010BDC1950D0013B504465D
:108E600002F07EFFD4F8B837C01AB0F57A7F08D97F
:108E7000054B00936946002304F5F5600193FFF765
:108E8000B5FF02B010BD00BFF1A30D0037B5044619
:108E900003F00EFA054688B9094904F2E470FBF7BD
:108EA000B3FAD4F8E00703685B689847054B694656
:108EB00004F5F560CDE90035FFF798FF03B030BD4C
:108EC00020290E00C98E0D0037B50446D0F8E00702
:108ED0000368DB689847054660B9D4F8E007036883
:108EE0005B699847044B694604F5F560CDE90035A8
:108EF000FFF77CFF03B030BDFD8E0D0013B50446B7
:108F0000D0F8E0070368DB69984740B1054B009350
:108F10006946002304F5F5600193FFF767FF02B08F
:108F200010BD00BF39910D0013B5044602F018FFC3
:108F3000D4F8B837C01AD4F89036984208D3054B05
:108F400000936946002304F5F5600193FFF74EFF97
:108F500002B010BD65960D002DE9F04300F2E477F4
:108F600085B03A4904463846FBF74EFA05F0CCFF87
:108F700070B90026D4F8E056B046B146D4F8E436CD
:108F8000AB423DD0CDE90199AB6853BB06F07EFA08
:108F900004F5D065D5E900231343EAD005F0D1FFED
:108FA000D5E90023C117904271EB0303E1DA2849A8
:108FB0003846FBF729FAFFF7E5FC054605F0C1FF47
:108FC0001821024605F5BD60FFF786FDD4F81C3771
:108FD0004FF0FF32D4F8201799422DD043F8082BD8
:108FE000F8E7EB68284602AA01A99847019B984533
:108FF000B8BF9846029B9E42B8BF1E461035BDE7DB
:10900000B045D4DB13493846FBF7FEF9002503F0E1
:1090100047F9114B029302A904F5F5600395FFF798
:10902000E5FE02F09DFEC4F8C457C4F8BC07C4F8BE
:10903000C05705B0BDE8F083084B029302A9002396
:1090400004F5F5600393FFF7D1FEF2E737290E0030
:1090500049290E0090290E0061900D00CDAF0D0042
:1090600013B5044603F024F950B1194B0093694637
:10907000002304F5F5600193FFF7B8FE02B010BDC0
:10908000D4F8C4378BB9D4F8E0070368DB68984795
:1090900058B102F065FED4F8BC27C4F8C407821AA0
:1090A0000C4904F2E470FBF7AFF902F059FED4F872
:1090B000BC270021821A04F20470FFF769FE002821
:1090C000DCD0054904F2E470FBF79EF9034BCDE7D1
:1090D000398E0D0067290E0086290E0011B00D0093
:1090E00037B5044603F0E4F8054650B10F4B009342
:1090F00000230193694604F5F560FFF777FE03B09E
:1091000030BD02F02DFED4F8C0272946821A04F2A1
:109110000470FFF73DFE0028F1D0054904F2E47029
:10912000FBF772F9034BCDE90035E3E7F1A30D003E
:10913000A4290E0011B00D00F0B500F2E47504464C
:1091400087B037492846FBF75FF9002104F5DF6057
:10915000FFF7C3FD002002F013FED4F88826D4F8F0
:109160009016871AB94228DD0A44111AC4F89016DD
:1091700004F25C60FEF7BCFFD4F89026D4F8A43764
:1091800000269A42C4F87C6735D328463B464FF404
:109190007A71B2FBF1F22349FBF736F904F25C6114
:1091A00003A805F035FDD4F85056D4F85436AB4238
:1091B0000DD0AB682BB906F069F90023C4F89036DE
:1091C000DAE7EB68284603A998471035EDE7039BDB
:1091D00003B19B88C4F87C37134B019301A900238A
:1091E00004F5F5600293FFF701FE039808B103F060
:1091F000F7F807B0F0BD0D492846FBF705F90C4B11
:10920000C4F87C370B4B03A904F5F560CDE90336B0
:10921000FFF7ECFD02F0A4FDC4F8B807E9E700BFD2
:10922000C4290E00D6290E0065960D00FA290E00FD
:1092300002000100298F0D002DE9F3410B7805464E
:1092400073B300681D4900F2E470FBF7DDF82F6886
:10925000D7F88047D7F8843704F124029A4218D00F
:10926000174E9B1A9B105E43002E12DD04F124085A
:109270004146204605F0A1FB04F1340104F1100041
:1092800005F09BFB94F8443084F82030013E4446BE
:10929000EAE7D7F884072438C7F88407FFF753F8BC
:1092A0002868084B00936946002300F5F560019398
:1092B000FFF79CFD02B0BDE8F08100BF172A0E0049
:1092C000398EE3385D8E0D00F8B58B6800270646B1
:1092D0000D468760B3B11020FAF7DDFE044660B199
:1092E000876001462846FBF7F8FFAB68A268AA60D2
:1092F000A360E268EB68E360EA60034BF360034B52
:109300003460B3603046F8BD797E0D004B8B0D00A4
:109310002DE9F843074688461646154604464FF0A1
:109320000009444514D06DB1C5F80890294620467F
:10933000FBF7D3FFA368AA68A260AB60E368EA68A2
:10934000E260EB602046FBF7C9FE10341035E8E719
:10935000E01B3044BDE8F8832DE9F8430746884612
:109360001646154604464FF00009444514D06DB129
:10937000C5F8089029462046FBF7AFFFA368AA6806
:10938000A260AB60E368EA68E260EB602046FBF74E
:10939000A5FE10341035E8E7E01B3044BDE8F88343
:1093A0002DE9F843074688461646154604464FF011
:1093B0000009444514D06DB1C5F8089029462046EF
:1093C000FBF78BFFA368AA68A260AB60E368EA685A
:1093D000E260EB602046FBF781FE10341035E8E7D1
:1093E000E01B3044BDE8F8832DE9F8430746884682
:1093F0001646154604464FF00009444514D06DB199
:10940000C5F8089029462046FBF767FFA368AA68BD
:10941000A260AB60E368EA68E260EB602046FBF7BD
:109420005DFE10341035E8E7E01B3044BDE8F883FA
:109430002DE9F843074688461646154604464FF080
:109440000009444514D06DB1C5F80890294620465E
:10945000FBF743FFA368AA68A260AB60E368EA6811
:10946000E260EB602046FBF739FE10341035E8E788
:10947000E01B3044BDE8F8832DE9F347D0E90079DB
:1094800088466FF078431146A9EB0702B3EB221F21
:1094900006464FEA221402D11A4805F0F4FF012CC7
:1094A000224638BF0122A418A8EB070A28D24CB1E3
:1094B0009C4228BF1C4620010191FAF7ECFD01995E
:1094C000054600E0254615EB0A0001D0FFF72EFB0C
:1094D00041462A463846FFF7ABFF494600F11002E5
:1094E0004046FFF7A5FF804617B13846FAF7D7FD8B
:1094F00005EB0414C6E90058B46002B0BDE8F0877B
:109500001C46D8E7E3240E0070B5D0F89447D0F895
:109510009067054603EA040102EA060001438EB0A3
:109520003FD012990AA8CDE908230026FFF77FFB58
:1095300018200296FAF7AFFD044688B1DDE908234A
:109540000661C0E9002300F108010AA8FBF7C5FE87
:109550000C9B22690C92236162690D9B63610D92E1
:10956000154B03936946154B029304A80094FFF72B
:10957000DDFAD5F84807D5F84C37984214D010B129
:1095800004A9FFF7D3FAD5F848371033C5F84837A0
:1095900004A8FBF7A3FD6846FBF7A0FD0AA8FBF7AC
:1095A0009DFD28460EB070BD014604AA05F2447028
:1095B000FFF762FFECE700BFFF8B0D004D8C0D0045
:1095C00030B587B0044602F0CBFBC4F8C807FFF7FC
:1095D000D9F9054605F0B5FC1421024605F5BD6034
:1095E000FFF77AFAD4F8BC27D4F8C8571749AD1A50
:1095F0002A4604F2E470FAF707FF154B0593154B62
:10960000049302AB00930222002320460295FFF749
:109610007BFF02A8FBF762FD0F4B05930F4B0493F2
:1096200002AB0822009320460023FFF76DFF02A83B
:10963000FBF754FD0A4B029302A9002304F5F560E1
:109640000393FFF7D3FB07B030BD00BF362A0E00EF
:10965000977E0D00997D0D00697F0D00B17D0D0095
:109660001DAB0D00F0B587B00446144B029302AE5B
:109670000023314600F5F5600393FFF7B7FBD4F8FC
:109680007C77D4F8EC56D4F8F036AB4205D02846B7
:109690003946FFF79FFB1035F5E7094B0593094B5A
:1096A000049301220023009620460294FFF72CFF2A
:1096B0003046FBF713FD07B0F0BD00BF598F0D001A
:1096C000317F0D00D37D0D002DE9F347D0E90079FE
:1096D00088466FF078431146A9EB0702B3EB221FCF
:1096E00006464FEA221402D11A4805F0CCFE012C9E
:1096F000224638BF0122A418A8EB070A28D24CB191
:109700009C4228BF1C4620010191FAF7C4FC019934
:10971000054600E0254615EB0A0001D0FFF739FAAF
:1097200041462A463846FFF73BFE494600F1100203
:109730004046FFF735FE804617B13846FAF7AFFCD2
:1097400005EB0414C6E90058B46002B0BDE8F08728
:109750001C46D8E7E3240E002DE9F347D0E9007951
:1097600088466FF078431146A9EB0702B3EB221F3E
:1097700006464FEA221402D11A4805F084FE012C55
:10978000224638BF0122A418A8EB070A28D24CB100
:109790009C4228BF1C4620010191FAF77CFC0199EC
:1097A000054600E0254615EB0A0001D0FFF700FA58
:1097B00041462A463846FFF7ABFD494600F1100204
:1097C0004046FFF7A5FD804617B13846FAF767FC1B
:1097D00005EB0414C6E90058B46002B0BDE8F08798
:1097E0001C46D8E7E3240E002DE9F347D0E90079C1
:1097F00088466FF078431146A9EB0702B3EB221FAE
:1098000006464FEA221402D11A4805F03CFE012C0C
:10981000224638BF0122A418A8EB070A28D24CB16F
:109820009C4228BF1C4620010191FAF734FC0199A3
:10983000054600E0254615EB0A0001D0FFF7C7F901
:1098400041462A463846FFF787FD494600F1100297
:109850004046FFF781FD804617B13846FAF71FFCF6
:1098600005EB0414C6E90058B46002B0BDE8F08707
:109870001C46D8E7E3240E002DE9F347D0E9007930
:1098800088466FF078431146A9EB0702B3EB221F1D
:1098900006464FEA221402D11A4805F0F4FD012CC5
:1098A000224638BF0122A418A8EB070A28D24CB1DF
:1098B0009C4228BF1C4620010191FAF7ECFB01995C
:1098C000054600E0254615EB0A0001D0FFF7E5F953
:1098D00041462A463846FFF787FD494600F1100207
:1098E0004046FFF781FD804617B13846FAF7D7FBAF
:1098F00005EB0414C6E90058B46002B0BDE8F08777
:109900001C46D8E7E3240E0030B589B00546FEF7C3
:1099100023FAFFF737F8284B03930446274B0293AB
:10992000694604A80095FFF734F9D4F8A806D4F8DE
:10993000AC36984231D010B104A9FFF72AF9D4F817
:10994000A8361033C4F8A83604A8FBF7C7FB68464E
:10995000FBF7C4FBFFF716F8194B03930446194BAA
:109960000293694604A80095FFF797F9D4F8FC061E
:10997000D4F80037984217D010B104A9FFF78DF939
:10998000D4F8FC361033C4F8FC3604A8FBF7A6FB69
:109990006846FBF7A3FB09B030BD014604AA04F2F8
:1099A000A460FFF791FECFE7014604AA04F5DF604B
:1099B000FFF762FFE9E700BF037F0D00EB7D0D00BD
:1099C000137F0D00037E0D0038B50346D3E9003543
:1099D000ED1A6FF078432C11A3EB25158D4210463C
:1099E00001D205F050FDA14238BF2146601803D2D4
:1099F000984228BF184638BD1846FCE72DE9F843C1
:109A00000E46054604F0CEFF33692B61D6E90537D3
:109A1000FF1A38114FF00003C5E90533EB6101D09F
:109A2000FEF7EDFAC5E905000744EF61D6E90597B1
:109A300004464E468046B7420AD0B8F1000F03D024
:109A40003146404604F0AEFF08F110081036F2E748
:109A5000A7EB09073C44AC612846BDE8F883000049
:109A60002DE9F84FD0E9008A93466FF07043AAEBD6
:109A70000802B3EBE20F074689464FEAE20402D13F
:109A8000254805F000FD012C224638BF0122A4180C
:109A9000A1EB08063DD23CB19C4228BF1C46E00029
:109AA000FAF7F9FA054600E02546AB191CBFDBE9D9
:109AB0000001C3E90001002308EB030291450AD02D
:109AC00015EB030C18BFD2E9000103F1080318BF1E
:109AD000CCE90001F0E708362E4432464B465345A8
